{
  "_format": "hh-sol-artifact-1",
  "contractName": "CylinderRegistry",
  "sourceName": "contracts/CylinderRegistry.sol",
  "abi": [
    {
      "inputs": [],
      "stateMutability": "nonpayable",
      "type": "constructor"
    },
    {
      "inputs": [],
      "name": "AccessControlBadConfirmation",
      "type": "error"
    },
    {
      "inputs": [
        {
          "internalType": "address",
          "name": "account",
          "type": "address"
        },
        {
          "internalType": "bytes32",
          "name": "neededRole",
          "type": "bytes32"
        }
      ],
      "name": "AccessControlUnauthorizedAccount",
      "type": "error"
    },
    {
      "inputs": [],
      "name": "ERC721EnumerableForbiddenBatchMint",
      "type": "error"
    },
    {
      "inputs": [
        {
          "internalType": "address",
          "name": "sender",
          "type": "address"
        },
        {
          "internalType": "uint256",
          "name": "tokenId",
          "type": "uint256"
        },
        {
          "internalType": "address",
          "name": "owner",
          "type": "address"
        }
      ],
      "name": "ERC721IncorrectOwner",
      "type": "error"
    },
    {
      "inputs": [
        {
          "internalType": "address",
          "name": "operator",
          "type": "address"
        },
        {
          "internalType": "uint256",
          "name": "tokenId",
          "type": "uint256"
        }
      ],
      "name": "ERC721InsufficientApproval",
      "type": "error"
    },
    {
      "inputs": [
        {
          "internalType": "address",
          "name": "approver",
          "type": "address"
        }
      ],
      "name": "ERC721InvalidApprover",
      "type": "error"
    },
    {
      "inputs": [
        {
          "internalType": "address",
          "name": "operator",
          "type": "address"
        }
      ],
      "name": "ERC721InvalidOperator",
      "type": "error"
    },
    {
      "inputs": [
        {
          "internalType": "address",
          "name": "owner",
          "type": "address"
        }
      ],
      "name": "ERC721InvalidOwner",
      "type": "error"
    },
    {
      "inputs": [
        {
          "internalType": "address",
          "name": "receiver",
          "type": "address"
        }
      ],
      "name": "ERC721InvalidReceiver",
      "type": "error"
    },
    {
      "inputs": [
        {
          "internalType": "address",
          "name": "sender",
          "type": "address"
        }
      ],
      "name": "ERC721InvalidSender",
      "type": "error"
    },
    {
      "inputs": [
        {
          "internalType": "uint256",
          "name": "tokenId",
          "type": "uint256"
        }
      ],
      "name": "ERC721NonexistentToken",
      "type": "error"
    },
    {
      "inputs": [
        {
          "internalType": "address",
          "name": "owner",
          "type": "address"
        },
        {
          "internalType": "uint256",
          "name": "index",
          "type": "uint256"
        }
      ],
      "name": "ERC721OutOfBoundsIndex",
      "type": "error"
    },
    {
      "inputs": [],
      "name": "EnforcedPause",
      "type": "error"
    },
    {
      "inputs": [],
      "name": "ExpectedPause",
      "type": "error"
    },
    {
      "anonymous": false,
      "inputs": [
        {
          "indexed": true,
          "internalType": "address",
          "name": "owner",
          "type": "address"
        },
        {
          "indexed": true,
          "internalType": "address",
          "name": "approved",
          "type": "address"
        },
        {
          "indexed": true,
          "internalType": "uint256",
          "name": "tokenId",
          "type": "uint256"
        }
      ],
      "name": "Approval",
      "type": "event"
    },
    {
      "anonymous": false,
      "inputs": [
        {
          "indexed": true,
          "internalType": "address",
          "name": "owner",
          "type": "address"
        },
        {
          "indexed": true,
          "internalType": "address",
          "name": "operator",
          "type": "address"
        },
        {
          "indexed": false,
          "internalType": "bool",
          "name": "approved",
          "type": "bool"
        }
      ],
      "name": "ApprovalForAll",
      "type": "event"
    },
    {
      "anonymous": false,
      "inputs": [
        {
          "indexed": true,
          "internalType": "uint256",
          "name": "tokenId",
          "type": "uint256"
        },
        {
          "indexed": false,
          "internalType": "uint256",
          "name": "inspectionDate",
          "type": "uint256"
        }
      ],
      "name": "CylinderInspected",
      "type": "event"
    },
    {
      "anonymous": false,
      "inputs": [
        {
          "indexed": true,
          "internalType": "uint256",
          "name": "tokenId",
          "type": "uint256"
        },
        {
          "indexed": true,
          "internalType": "uint256",
          "name": "companyId",
          "type": "uint256"
        },
        {
          "indexed": false,
          "internalType": "uint256",
          "name": "cylinderTypeId",
          "type": "uint256"
        },
        {
          "indexed": false,
          "internalType": "string",
          "name": "serialNumber",
          "type": "string"
        },
        {
          "indexed": false,
          "internalType": "uint256",
          "name": "branchId",
          "type": "uint256"
        }
      ],
      "name": "CylinderRegistered",
      "type": "event"
    },
    {
      "anonymous": false,
      "inputs": [
        {
          "indexed": true,
          "internalType": "uint256",
          "name": "tokenId",
          "type": "uint256"
        },
        {
          "indexed": false,
          "internalType": "enum CylinderRegistry.CylinderStatus",
          "name": "oldStatus",
          "type": "uint8"
        },
        {
          "indexed": false,
          "internalType": "enum CylinderRegistry.CylinderStatus",
          "name": "newStatus",
          "type": "uint8"
        },
        {
          "indexed": false,
          "internalType": "uint256",
          "name": "branchId",
          "type": "uint256"
        }
      ],
      "name": "CylinderStatusChanged",
      "type": "event"
    },
    {
      "anonymous": false,
      "inputs": [
        {
          "indexed": true,
          "internalType": "uint256",
          "name": "tokenId",
          "type": "uint256"
        },
        {
          "indexed": false,
          "internalType": "uint256",
          "name": "fromBranchId",
          "type": "uint256"
        },
        {
          "indexed": false,
          "internalType": "uint256",
          "name": "toBranchId",
          "type": "uint256"
        },
        {
          "indexed": false,
          "internalType": "address",
          "name": "initiatedBy",
          "type": "address"
        }
      ],
      "name": "CylinderTransferred",
      "type": "event"
    },
    {
      "anonymous": false,
      "inputs": [
        {
          "indexed": false,
          "internalType": "address",
          "name": "account",
          "type": "address"
        }
      ],
      "name": "Paused",
      "type": "event"
    },
    {
      "anonymous": false,
      "inputs": [
        {
          "indexed": true,
          "internalType": "bytes32",
          "name": "role",
          "type": "bytes32"
        },
        {
          "indexed": true,
          "internalType": "bytes32",
          "name": "previousAdminRole",
          "type": "bytes32"
        },
        {
          "indexed": true,
          "internalType": "bytes32",
          "name": "newAdminRole",
          "type": "bytes32"
        }
      ],
      "name": "RoleAdminChanged",
      "type": "event"
    },
    {
      "anonymous": false,
      "inputs": [
        {
          "indexed": true,
          "internalType": "bytes32",
          "name": "role",
          "type": "bytes32"
        },
        {
          "indexed": true,
          "internalType": "address",
          "name": "account",
          "type": "address"
        },
        {
          "indexed": true,
          "internalType": "address",
          "name": "sender",
          "type": "address"
        }
      ],
      "name": "RoleGranted",
      "type": "event"
    },
    {
      "anonymous": false,
      "inputs": [
        {
          "indexed": true,
          "internalType": "bytes32",
          "name": "role",
          "type": "bytes32"
        },
        {
          "indexed": true,
          "internalType": "address",
          "name": "account",
          "type": "address"
        },
        {
          "indexed": true,
          "internalType": "address",
          "name": "sender",
          "type": "address"
        }
      ],
      "name": "RoleRevoked",
      "type": "event"
    },
    {
      "anonymous": false,
      "inputs": [
        {
          "indexed": true,
          "internalType": "address",
          "name": "from",
          "type": "address"
        },
        {
          "indexed": true,
          "internalType": "address",
          "name": "to",
          "type": "address"
        },
        {
          "indexed": true,
          "internalType": "uint256",
          "name": "tokenId",
          "type": "uint256"
        }
      ],
      "name": "Transfer",
      "type": "event"
    },
    {
      "anonymous": false,
      "inputs": [
        {
          "indexed": false,
          "internalType": "address",
          "name": "account",
          "type": "address"
        }
      ],
      "name": "Unpaused",
      "type": "event"
    },
    {
      "inputs": [],
      "name": "BRANCH_STAFF_ROLE",
      "outputs": [
        {
          "internalType": "bytes32",
          "name": "",
          "type": "bytes32"
        }
      ],
      "stateMutability": "view",
      "type": "function"
    },
    {
      "inputs": [],
      "name": "DEFAULT_ADMIN_ROLE",
      "outputs": [
        {
          "internalType": "bytes32",
          "name": "",
          "type": "bytes32"
        }
      ],
      "stateMutability": "view",
      "type": "function"
    },
    {
      "inputs": [],
      "name": "PLATFORM_ADMIN_ROLE",
      "outputs": [
        {
          "internalType": "bytes32",
          "name": "",
          "type": "bytes32"
        }
      ],
      "stateMutability": "view",
      "type": "function"
    },
    {
      "inputs": [
        {
          "internalType": "address",
          "name": "to",
          "type": "address"
        },
        {
          "internalType": "uint256",
          "name": "tokenId",
          "type": "uint256"
        }
      ],
      "name": "approve",
      "outputs": [],
      "stateMutability": "nonpayable",
      "type": "function"
    },
    {
      "inputs": [
        {
          "internalType": "address",
          "name": "owner",
          "type": "address"
        }
      ],
      "name": "balanceOf",
      "outputs": [
        {
          "internalType": "uint256",
          "name": "",
          "type": "uint256"
        }
      ],
      "stateMutability": "view",
      "type": "function"
    },
    {
      "inputs": [
        {
          "internalType": "uint256",
          "name": "",
          "type": "uint256"
        }
      ],
      "name": "cylinderData",
      "outputs": [
        {
          "internalType": "uint256",
          "name": "companyId",
          "type": "uint256"
        },
        {
          "internalType": "uint256",
          "name": "cylinderTypeId",
          "type": "uint256"
        },
        {
          "internalType": "string",
          "name": "serialNumber",
          "type": "string"
        },
        {
          "internalType": "uint256",
          "name": "currentBranchId",
          "type": "uint256"
        },
        {
          "internalType": "enum CylinderRegistry.CylinderStatus",
          "name": "status",
          "type": "uint8"
        },
        {
          "internalType": "uint256",
          "name": "manufacturingDate",
          "type": "uint256"
        },
        {
          "internalType": "uint256",
          "name": "lastInspectionDate",
          "type": "uint256"
        },
        {
          "internalType": "uint256",
          "name": "registeredAt",
          "type": "uint256"
        }
      ],
      "stateMutability": "view",
      "type": "function"
    },
    {
      "inputs": [
        {
          "internalType": "uint256",
          "name": "",
          "type": "uint256"
        },
        {
          "internalType": "uint256",
          "name": "",
          "type": "uint256"
        }
      ],
      "name": "cylinderHistory",
      "outputs": [
        {
          "internalType": "uint256",
          "name": "fromBranchId",
          "type": "uint256"
        },
        {
          "internalType": "uint256",
          "name": "toBranchId",
          "type": "uint256"
        },
        {
          "internalType": "address",
          "name": "initiatedBy",
          "type": "address"
        },
        {
          "internalType": "uint256",
          "name": "timestamp",
          "type": "uint256"
        },
        {
          "internalType": "string",
          "name": "reason",
          "type": "string"
        }
      ],
      "stateMutability": "view",
      "type": "function"
    },
    {
      "inputs": [
        {
          "internalType": "uint256",
          "name": "tokenId",
          "type": "uint256"
        }
      ],
      "name": "getApproved",
      "outputs": [
        {
          "internalType": "address",
          "name": "",
          "type": "address"
        }
      ],
      "stateMutability": "view",
      "type": "function"
    },
    {
      "inputs": [
        {
          "internalType": "uint256",
          "name": "branchId",
          "type": "uint256"
        }
      ],
      "name": "getAvailableCylindersAtBranch",
      "outputs": [
        {
          "internalType": "string[]",
          "name": "serialNumbers",
          "type": "string[]"
        },
        {
          "internalType": "uint256[]",
          "name": "tokenIds",
          "type": "uint256[]"
        }
      ],
      "stateMutability": "view",
      "type": "function"
    },
    {
      "inputs": [
        {
          "internalType": "uint256",
          "name": "tokenId",
          "type": "uint256"
        }
      ],
      "name": "getCylinder",
      "outputs": [
        {
          "components": [
            {
              "internalType": "uint256",
              "name": "companyId",
              "type": "uint256"
            },
            {
              "internalType": "uint256",
              "name": "cylinderTypeId",
              "type": "uint256"
            },
            {
              "internalType": "string",
              "name": "serialNumber",
              "type": "string"
            },
            {
              "internalType": "uint256",
              "name": "currentBranchId",
              "type": "uint256"
            },
            {
              "internalType": "enum CylinderRegistry.CylinderStatus",
              "name": "status",
              "type": "uint8"
            },
            {
              "internalType": "uint256",
              "name": "manufacturingDate",
              "type": "uint256"
            },
            {
              "internalType": "uint256",
              "name": "lastInspectionDate",
              "type": "uint256"
            },
            {
              "internalType": "uint256",
              "name": "registeredAt",
              "type": "uint256"
            }
          ],
          "internalType": "struct CylinderRegistry.CylinderData",
          "name": "",
          "type": "tuple"
        }
      ],
      "stateMutability": "view",
      "type": "function"
    },
    {
      "inputs": [
        {
          "internalType": "string",
          "name": "serialNumber",
          "type": "string"
        }
      ],
      "name": "getCylinderBySerial",
      "outputs": [
        {
          "internalType": "uint256",
          "name": "",
          "type": "uint256"
        },
        {
          "components": [
            {
              "internalType": "uint256",
              "name": "companyId",
              "type": "uint256"
            },
            {
              "internalType": "uint256",
              "name": "cylinderTypeId",
              "type": "uint256"
            },
            {
              "internalType": "string",
              "name": "serialNumber",
              "type": "string"
            },
            {
              "internalType": "uint256",
              "name": "currentBranchId",
              "type": "uint256"
            },
            {
              "internalType": "enum CylinderRegistry.CylinderStatus",
              "name": "status",
              "type": "uint8"
            },
            {
              "internalType": "uint256",
              "name": "manufacturingDate",
              "type": "uint256"
            },
            {
              "internalType": "uint256",
              "name": "lastInspectionDate",
              "type": "uint256"
            },
            {
              "internalType": "uint256",
              "name": "registeredAt",
              "type": "uint256"
            }
          ],
          "internalType": "struct CylinderRegistry.CylinderData",
          "name": "",
          "type": "tuple"
        }
      ],
      "stateMutability": "view",
      "type": "function"
    },
    {
      "inputs": [
        {
          "internalType": "uint256",
          "name": "tokenId",
          "type": "uint256"
        }
      ],
      "name": "getCylinderHistory",
      "outputs": [
        {
          "components": [
            {
              "internalType": "uint256",
              "name": "fromBranchId",
              "type": "uint256"
            },
            {
              "internalType": "uint256",
              "name": "toBranchId",
              "type": "uint256"
            },
            {
              "internalType": "address",
              "name": "initiatedBy",
              "type": "address"
            },
            {
              "internalType": "uint256",
              "name": "timestamp",
              "type": "uint256"
            },
            {
              "internalType": "string",
              "name": "reason",
              "type": "string"
            }
          ],
          "internalType": "struct CylinderRegistry.TransferRecord[]",
          "name": "",
          "type": "tuple[]"
        }
      ],
      "stateMutability": "view",
      "type": "function"
    },
    {
      "inputs": [
        {
          "internalType": "bytes32",
          "name": "role",
          "type": "bytes32"
        }
      ],
      "name": "getRoleAdmin",
      "outputs": [
        {
          "internalType": "bytes32",
          "name": "",
          "type": "bytes32"
        }
      ],
      "stateMutability": "view",
      "type": "function"
    },
    {
      "inputs": [],
      "name": "getTotalCylinders",
      "outputs": [
        {
          "internalType": "uint256",
          "name": "",
          "type": "uint256"
        }
      ],
      "stateMutability": "view",
      "type": "function"
    },
    {
      "inputs": [
        {
          "internalType": "bytes32",
          "name": "role",
          "type": "bytes32"
        },
        {
          "internalType": "address",
          "name": "account",
          "type": "address"
        }
      ],
      "name": "grantRole",
      "outputs": [],
      "stateMutability": "nonpayable",
      "type": "function"
    },
    {
      "inputs": [
        {
          "internalType": "bytes32",
          "name": "role",
          "type": "bytes32"
        },
        {
          "internalType": "address",
          "name": "account",
          "type": "address"
        }
      ],
      "name": "hasRole",
      "outputs": [
        {
          "internalType": "bool",
          "name": "",
          "type": "bool"
        }
      ],
      "stateMutability": "view",
      "type": "function"
    },
    {
      "inputs": [
        {
          "internalType": "address",
          "name": "owner",
          "type": "address"
        },
        {
          "internalType": "address",
          "name": "operator",
          "type": "address"
        }
      ],
      "name": "isApprovedForAll",
      "outputs": [
        {
          "internalType": "bool",
          "name": "",
          "type": "bool"
        }
      ],
      "stateMutability": "view",
      "type": "function"
    },
    {
      "inputs": [
        {
          "internalType": "uint256",
          "name": "tokenId",
          "type": "uint256"
        },
        {
          "internalType": "uint256",
          "name": "branchId",
          "type": "uint256"
        }
      ],
      "name": "isCylinderAtBranch",
      "outputs": [
        {
          "internalType": "bool",
          "name": "",
          "type": "bool"
        }
      ],
      "stateMutability": "view",
      "type": "function"
    },
    {
      "inputs": [
        {
          "internalType": "uint256",
          "name": "tokenId",
          "type": "uint256"
        }
      ],
      "name": "isCylinderAvailable",
      "outputs": [
        {
          "internalType": "bool",
          "name": "",
          "type": "bool"
        }
      ],
      "stateMutability": "view",
      "type": "function"
    },
    {
      "inputs": [],
      "name": "name",
      "outputs": [
        {
          "internalType": "string",
          "name": "",
          "type": "string"
        }
      ],
      "stateMutability": "view",
      "type": "function"
    },
    {
      "inputs": [
        {
          "internalType": "uint256",
          "name": "tokenId",
          "type": "uint256"
        }
      ],
      "name": "ownerOf",
      "outputs": [
        {
          "internalType": "address",
          "name": "",
          "type": "address"
        }
      ],
      "stateMutability": "view",
      "type": "function"
    },
    {
      "inputs": [],
      "name": "pause",
      "outputs": [],
      "stateMutability": "nonpayable",
      "type": "function"
    },
    {
      "inputs": [],
      "name": "paused",
      "outputs": [
        {
          "internalType": "bool",
          "name": "",
          "type": "bool"
        }
      ],
      "stateMutability": "view",
      "type": "function"
    },
    {
      "inputs": [
        {
          "internalType": "uint256",
          "name": "tokenId",
          "type": "uint256"
        }
      ],
      "name": "recordInspection",
      "outputs": [],
      "stateMutability": "nonpayable",
      "type": "function"
    },
    {
      "inputs": [
        {
          "internalType": "uint256",
          "name": "companyId",
          "type": "uint256"
        },
        {
          "internalType": "uint256",
          "name": "cylinderTypeId",
          "type": "uint256"
        },
        {
          "internalType": "string",
          "name": "serialNumber",
          "type": "string"
        },
        {
          "internalType": "uint256",
          "name": "branchId",
          "type": "uint256"
        },
        {
          "internalType": "uint256",
          "name": "manufacturingDate",
          "type": "uint256"
        }
      ],
      "name": "registerCylinder",
      "outputs": [
        {
          "internalType": "uint256",
          "name": "",
          "type": "uint256"
        }
      ],
      "stateMutability": "nonpayable",
      "type": "function"
    },
    {
      "inputs": [
        {
          "internalType": "bytes32",
          "name": "role",
          "type": "bytes32"
        },
        {
          "internalType": "address",
          "name": "callerConfirmation",
          "type": "address"
        }
      ],
      "name": "renounceRole",
      "outputs": [],
      "stateMutability": "nonpayable",
      "type": "function"
    },
    {
      "inputs": [
        {
          "internalType": "uint256",
          "name": "tokenId",
          "type": "uint256"
        }
      ],
      "name": "retireCylinder",
      "outputs": [],
      "stateMutability": "nonpayable",
      "type": "function"
    },
    {
      "inputs": [
        {
          "internalType": "bytes32",
          "name": "role",
          "type": "bytes32"
        },
        {
          "internalType": "address",
          "name": "account",
          "type": "address"
        }
      ],
      "name": "revokeRole",
      "outputs": [],
      "stateMutability": "nonpayable",
      "type": "function"
    },
    {
      "inputs": [
        {
          "internalType": "address",
          "name": "from",
          "type": "address"
        },
        {
          "internalType": "address",
          "name": "to",
          "type": "address"
        },
        {
          "internalType": "uint256",
          "name": "tokenId",
          "type": "uint256"
        }
      ],
      "name": "safeTransferFrom",
      "outputs": [],
      "stateMutability": "nonpayable",
      "type": "function"
    },
    {
      "inputs": [
        {
          "internalType": "address",
          "name": "from",
          "type": "address"
        },
        {
          "internalType": "address",
          "name": "to",
          "type": "address"
        },
        {
          "internalType": "uint256",
          "name": "tokenId",
          "type": "uint256"
        },
        {
          "internalType": "bytes",
          "name": "data",
          "type": "bytes"
        }
      ],
      "name": "safeTransferFrom",
      "outputs": [],
      "stateMutability": "nonpayable",
      "type": "function"
    },
    {
      "inputs": [
        {
          "internalType": "string",
          "name": "",
          "type": "string"
        }
      ],
      "name": "serialNumberToTokenId",
      "outputs": [
        {
          "internalType": "uint256",
          "name": "",
          "type": "uint256"
        }
      ],
      "stateMutability": "view",
      "type": "function"
    },
    {
      "inputs": [
        {
          "internalType": "address",
          "name": "operator",
          "type": "address"
        },
        {
          "internalType": "bool",
          "name": "approved",
          "type": "bool"
        }
      ],
      "name": "setApprovalForAll",
      "outputs": [],
      "stateMutability": "nonpayable",
      "type": "function"
    },
    {
      "inputs": [
        {
          "internalType": "bytes4",
          "name": "interfaceId",
          "type": "bytes4"
        }
      ],
      "name": "supportsInterface",
      "outputs": [
        {
          "internalType": "bool",
          "name": "",
          "type": "bool"
        }
      ],
      "stateMutability": "view",
      "type": "function"
    },
    {
      "inputs": [],
      "name": "symbol",
      "outputs": [
        {
          "internalType": "string",
          "name": "",
          "type": "string"
        }
      ],
      "stateMutability": "view",
      "type": "function"
    },
    {
      "inputs": [
        {
          "internalType": "uint256",
          "name": "index",
          "type": "uint256"
        }
      ],
      "name": "tokenByIndex",
      "outputs": [
        {
          "internalType": "uint256",
          "name": "",
          "type": "uint256"
        }
      ],
      "stateMutability": "view",
      "type": "function"
    },
    {
      "inputs": [
        {
          "internalType": "address",
          "name": "owner",
          "type": "address"
        },
        {
          "internalType": "uint256",
          "name": "index",
          "type": "uint256"
        }
      ],
      "name": "tokenOfOwnerByIndex",
      "outputs": [
        {
          "internalType": "uint256",
          "name": "",
          "type": "uint256"
        }
      ],
      "stateMutability": "view",
      "type": "function"
    },
    {
      "inputs": [
        {
          "internalType": "uint256",
          "name": "tokenId",
          "type": "uint256"
        }
      ],
      "name": "tokenURI",
      "outputs": [
        {
          "internalType": "string",
          "name": "",
          "type": "string"
        }
      ],
      "stateMutability": "view",
      "type": "function"
    },
    {
      "inputs": [],
      "name": "totalSupply",
      "outputs": [
        {
          "internalType": "uint256",
          "name": "",
          "type": "uint256"
        }
      ],
      "stateMutability": "view",
      "type": "function"
    },
    {
      "inputs": [
        {
          "internalType": "uint256",
          "name": "tokenId",
          "type": "uint256"
        },
        {
          "internalType": "uint256",
          "name": "fromBranchId",
          "type": "uint256"
        },
        {
          "internalType": "uint256",
          "name": "toBranchId",
          "type": "uint256"
        }
      ],
      "name": "transferCylinder",
      "outputs": [],
      "stateMutability": "nonpayable",
      "type": "function"
    },
    {
      "inputs": [
        {
          "internalType": "address",
          "name": "from",
          "type": "address"
        },
        {
          "internalType": "address",
          "name": "to",
          "type": "address"
        },
        {
          "internalType": "uint256",
          "name": "tokenId",
          "type": "uint256"
        }
      ],
      "name": "transferFrom",
      "outputs": [],
      "stateMutability": "nonpayable",
      "type": "function"
    },
    {
      "inputs": [],
      "name": "unpause",
      "outputs": [],
      "stateMutability": "nonpayable",
      "type": "function"
    },
    {
      "inputs": [
        {
          "internalType": "uint256",
          "name": "tokenId",
          "type": "uint256"
        },
        {
          "internalType": "enum CylinderRegistry.CylinderStatus",
          "name": "newStatus",
          "type": "uint8"
        },
        {
          "internalType": "uint256",
          "name": "branchId",
          "type": "uint256"
        }
      ],
      "name": "updateCylinderStatus",
      "outputs": [],
      "stateMutability": "nonpayable",
      "type": "function"
    }
  ],
  "bytecode": "0x60806040523480156200001157600080fd5b506040518060400160405280600b81526020016a23b0b9a1bcb634b73232b960a91b8152506040518060400160405280600481526020016311d0d65360e21b815250816000908162000064919062000211565b50600162000073828262000211565b506200008591506000905033620000b9565b50620000b27f5246556c0ab216b5b325ad7c539bfbd1a07c768773cdf810fecd3c3375c2740733620000b9565b50620002dd565b6000828152600a602090815260408083206001600160a01b038516845290915281205460ff1662000162576000838152600a602090815260408083206001600160a01b03861684529091529020805460ff19166001179055620001193390565b6001600160a01b0316826001600160a01b0316847f2f8788117e7eff1d82e926ec794901d17c78024a50270940304540a733656f0d60405160405180910390a450600162000166565b5060005b92915050565b634e487b7160e01b600052604160045260246000fd5b600181811c908216806200019757607f821691505b602082108103620001b857634e487b7160e01b600052602260045260246000fd5b50919050565b601f8211156200020c57600081815260208120601f850160051c81016020861015620001e75750805b601f850160051c820191505b818110156200020857828155600101620001f3565b5050505b505050565b81516001600160401b038111156200022d576200022d6200016c565b62000245816200023e845462000182565b84620001be565b602080601f8311600181146200027d5760008415620002645750858301515b600019600386901b1c1916600185901b17855562000208565b600085815260208120601f198616915b82811015620002ae578886015182559484019460019091019084016200028d565b5085821015620002cd5787850151600019600388901b60f8161c191681555b5050505050600190811b01905550565b6133ef80620002ed6000396000f3fe608060405234801561001057600080fd5b506004361061025e5760003560e01c8063685adfce11610146578063a22cb465116100c3578063c87b56dd11610087578063c87b56dd14610565578063ced9ed6a14610578578063d547741f1461059f578063e985e9c5146105b2578063ebee1f50146105c5578063f5209510146105e657600080fd5b8063a22cb465146104db578063ab445c49146104ee578063b88d4fde14610503578063bb033cd414610516578063c3ccc4bd1461054157600080fd5b806391d148541161010a57806391d148541461048557806395d89b411461049857806397647e8b146104a05780639c24e08a146104c0578063a217fddf146104d357600080fd5b8063685adfce1461042f578063685d34ff14610442578063709ab60d1461045757806370a082311461046a5780638456cb591461047d57600080fd5b80632f745c59116101df57806342842e0e116101a357806342842e0e146103d05780634f6ccce7146103e357806353d56e09146103f65780635c975abb146104095780635e56ee84146104145780636352211e1461041c57600080fd5b80632f745c591461036f57806336568abe1461038257806337a9401b146103955780633a2c729a146103a85780633f4ba83a146103c857600080fd5b806318160ddd1161022657806318160ddd1461030157806323b872dd14610313578063248a9ca3146103265780632dfcea88146103495780632f2ff15d1461035c57600080fd5b806301ffc9a71461026357806306fdde031461028b578063081812fc146102a0578063095ea7b3146102cb578063165c09c2146102e0575b600080fd5b6102766102713660046129ea565b6105f9565b60405190151581526020015b60405180910390f35b61029361060a565b6040516102829190612a57565b6102b36102ae366004612a6a565b61069c565b6040516001600160a01b039091168152602001610282565b6102de6102d9366004612a9f565b6106c5565b005b6102f36102ee366004612b75565b6106d4565b604051610282929190612c54565b6008545b604051908152602001610282565b6102de610321366004612c6d565b610879565b610305610334366004612a6a565b6000908152600a602052604090206001015490565b6102de610357366004612a6a565b610904565b6102de61036a366004612ca9565b6109a5565b61030561037d366004612a9f565b6109ca565b6102de610390366004612ca9565b610a2f565b6102de6103a3366004612a6a565b610a67565b6103bb6103b6366004612a6a565b610af1565b6040516102829190612cd5565b6102de610c2a565b6102de6103de366004612c6d565b610c4d565b6103056103f1366004612a6a565b610c68565b6102de610404366004612d73565b610cc1565b600b5460ff16610276565b600c54610305565b6102b361042a366004612a6a565b610f26565b61027661043d366004612d9f565b610f31565b61030560008051602061339a83398151915281565b610276610465366004612a6a565b61109c565b610305610478366004612dc1565b6110e1565b6102de611129565b610276610493366004612ca9565b611149565b610293611174565b6104b36104ae366004612a6a565b611183565b6040516102829190612ddc565b6103056104ce366004612def565b6112d6565b610305600081565b6102de6104e9366004612e51565b6115d2565b61030560008051602061337a83398151915281565b6102de610511366004612e8d565b6115dd565b610305610524366004612b75565b8051602081830181018051600e8252928201919093012091525481565b61055461054f366004612d9f565b6115f5565b604051610282959493929190612f09565b610293610573366004612a6a565b6116db565b61058b610586366004612a6a565b611750565b604051610282989796959493929190612f47565b6102de6105ad366004612ca9565b61181e565b6102766105c0366004612f9c565b611843565b6105d86105d3366004612a6a565b611871565b604051610282929190612fc6565b6102de6105f4366004613061565b611ad4565b600061060482611c53565b92915050565b6060600080546106199061309d565b80601f01602080910402602001604051908101604052809291908181526020018280546106459061309d565b80156106925780601f1061066757610100808354040283529160200191610692565b820191906000526020600020905b81548152906001019060200180831161067557829003601f168201915b5050505050905090565b60006106a782611c78565b506000828152600460205260409020546001600160a01b0316610604565b6106d0828233611cb1565b5050565b60006106de61297e565b6000600e846040516106f091906130d7565b90815260200160405180910390205490506000811161074b5760405162461bcd60e51b815260206004820152601260248201527110de5b1a5b99195c881b9bdd08199bdd5b9960721b60448201526064015b60405180910390fd5b80600d6000838152602001908152602001600020806040518061010001604052908160008201548152602001600182015481526020016002820180546107909061309d565b80601f01602080910402602001604051908101604052809291908181526020018280546107bc9061309d565b80156108095780601f106107de57610100808354040283529160200191610809565b820191906000526020600020905b8154815290600101906020018083116107ec57829003601f168201915b50505091835250506003820154602082015260048083015460409092019160ff169081111561083a5761083a612baa565b600481111561084b5761084b612baa565b8152602001600582015481526020016006820154815260200160078201548152505090509250925050915091565b6001600160a01b0382166108a357604051633250574960e11b815260006004820152602401610742565b60006108b0838333611cbe565b9050836001600160a01b0316816001600160a01b0316146108fe576040516364283d7b60e01b81526001600160a01b0380861660048301526024820184905282166044820152606401610742565b50505050565b60008051602061339a83398151915261091c81611ccb565b61092582611cd5565b6109415760405162461bcd60e51b8152600401610742906130f3565b6000828152600d6020526040908190206004808201805460ff191682179055600390910154915184927fae546fafd30f0ecc89a3b61d28cfeba2167858993b09e8de6b6fc66e9853525192610999929091829161312a565b60405180910390a25050565b6000828152600a60205260409020600101546109c081611ccb565b6108fe8383611cea565b60006109d5836110e1565b8210610a065760405163295f44f760e21b81526001600160a01b038416600482015260248101839052604401610742565b506001600160a01b03919091166000908152600660209081526040808320938352929052205490565b6001600160a01b0381163314610a585760405163334bd91960e11b815260040160405180910390fd5b610a628282611d7e565b505050565b60008051602061337a833981519152610a7f81611ccb565b610a8882611cd5565b610aa45760405162461bcd60e51b8152600401610742906130f3565b42600d600084815260200190815260200160002060060181905550817fbcfe4447bd2fc84a925d32ec49ee4429acaddabc3b45509ecc26e9fa4e12dcd34260405161099991815260200190565b6060600f6000838152602001908152602001600020805480602002602001604051908101604052809291908181526020016000905b82821015610c1f5760008481526020908190206040805160a081018252600586029092018054835260018101549383019390935260028301546001600160a01b03169082015260038201546060820152600482018054919291608084019190610b8e9061309d565b80601f0160208091040260200160405190810160405280929190818152602001828054610bba9061309d565b8015610c075780601f10610bdc57610100808354040283529160200191610c07565b820191906000526020600020905b815481529060010190602001808311610bea57829003601f168201915b50505050508152505081526020019060010190610b26565b505050509050919050565b60008051602061339a833981519152610c4281611ccb565b610c4a611deb565b50565b610a62838383604051806020016040528060008152506115dd565b6000610c7360085490565b8210610c9c5760405163295f44f760e21b81526000600482015260248101839052604401610742565b60088281548110610caf57610caf613153565b90600052602060002001549050919050565b60008051602061337a833981519152610cd981611ccb565b610ce1611e3d565b610cea84611cd5565b610d065760405162461bcd60e51b8152600401610742906130f3565b818303610d4c5760405162461bcd60e51b815260206004820152601460248201527329b0b6b290313930b731b4103a3930b739b332b960611b6044820152606401610742565b6000848152600d6020526040902060038101548414610dad5760405162461bcd60e51b815260206004820152601d60248201527f43796c696e646572206e6f7420617420736f75726365206272616e63680000006044820152606401610742565b600060048083015460ff1690811115610dc857610dc8612baa565b14610e0e5760405162461bcd60e51b815260206004820152601660248201527543796c696e646572206e6f7420617661696c61626c6560501b6044820152606401610742565b60038181018490556000868152600f60209081526040808320815160a0810183528981528084018981523382850190815242606084019081528551808701909652601586527424b73a32b916b13930b731b4103a3930b739b332b960591b868801526080840195865284546001808201875595895296909720835160059097020195865590519285019290925590516002840180546001600160a01b0319166001600160a01b0390921691909117905592519382019390935591519091906004820190610edb90826131af565b50506040805186815260208101869052338183015290518792507fce9029b59fff6dcbcbe7f3c336f0a2969b352ef77846a9ec78cbeea853e8f0e19181900360600190a25050505050565b600061060482611c78565b6000610f3c83611cd5565b610f4857506000610604565b6000600d6000858152602001908152602001600020604051806101000160405290816000820154815260200160018201548152602001600282018054610f8d9061309d565b80601f0160208091040260200160405190810160405280929190818152602001828054610fb99061309d565b80156110065780601f10610fdb57610100808354040283529160200191611006565b820191906000526020600020905b815481529060010190602001808311610fe957829003601f168201915b50505091835250506003820154602082015260048083015460409092019160ff169081111561103757611037612baa565b600481111561104857611048612baa565b815260200160058201548152602001600682015481526020016007820154815250509050828160600151148015611094575060008160800151600481111561109257611092612baa565b145b949350505050565b60006110a782611cd5565b6110b357506000919050565b6000828152600d6020526040812060049081015460ff16908111156110da576110da612baa565b1492915050565b60006001600160a01b03821661110d576040516322718ad960e21b815260006004820152602401610742565b506001600160a01b031660009081526003602052604090205490565b60008051602061339a83398151915261114181611ccb565b610c4a611e63565b6000918252600a602090815260408084206001600160a01b0393909316845291905290205460ff1690565b6060600180546106199061309d565b61118b61297e565b61119482611cd5565b6111b05760405162461bcd60e51b8152600401610742906130f3565b600d60008381526020019081526020016000206040518061010001604052908160008201548152602001600182015481526020016002820180546111f39061309d565b80601f016020809104026020016040519081016040528092919081815260200182805461121f9061309d565b801561126c5780601f106112415761010080835404028352916020019161126c565b820191906000526020600020905b81548152906001019060200180831161124f57829003601f168201915b50505091835250506003820154602082015260048083015460409092019160ff169081111561129d5761129d612baa565b60048111156112ae576112ae612baa565b8152600582015460208201526006820154604082015260079091015460609091015292915050565b600060008051602061337a8339815191526112f081611ccb565b6112f8611e3d565b6000871161133d5760405162461bcd60e51b8152602060048201526012602482015271125b9d985b1a590818dbdb5c185b9e48125160721b6044820152606401610742565b600086116113855760405162461bcd60e51b8152602060048201526015602482015274496e76616c69642063796c696e646572207479706560581b6044820152606401610742565b60008551116113cf5760405162461bcd60e51b815260206004820152601660248201527514d95c9a585b081b9d5b58995c881c995c5d5a5c995960521b6044820152606401610742565b600084116114135760405162461bcd60e51b8152602060048201526011602482015270125b9d985b1a5908189c985b98da081251607a1b6044820152606401610742565b600e8560405161142391906130d7565b9081526020016040518091039020546000146114815760405162461bcd60e51b815260206004820181905260248201527f53657269616c206e756d62657220616c726561647920726567697374657265646044820152606401610742565b600c805490600061149183613285565b9091555050600c54604080516101008101825289815260208082018a81528284018a8152606084018a905260006080850181905260a085018a90524260c0860181905260e0860152868152600d9093529390912082518155905160018201559151909190600282019061150490826131af565b506060820151816003015560808201518160040160006101000a81548160ff0219169083600481111561153957611539612baa565b021790555060a0820151816005015560c0820151816006015560e0820151816007015590505080600e8760405161157091906130d7565b9081526040519081900360200190205561158a3082611ea0565b87817f3be66d8ce5559f7076e10cac8e0ed69941f7877b87add5ba81b86fe2044f49ff8989896040516115bf9392919061329e565b60405180910390a3979650505050505050565b6106d0338383611f05565b6115e8848484610879565b6108fe3385858585611fa4565b600f602052816000526040600020818154811061161157600080fd5b6000918252602090912060059091020180546001820154600283015460038401546004850180549497509295506001600160a01b039091169390929091906116589061309d565b80601f01602080910402602001604051908101604052809291908181526020018280546116849061309d565b80156116d15780601f106116a6576101008083540402835291602001916116d1565b820191906000526020600020905b8154815290600101906020018083116116b457829003601f168201915b5050505050905085565b60606116e682611c78565b5060006116fe60408051602081019091526000815290565b9050600081511161171e5760405180602001604052806000815250611749565b80611728846120cf565b6040516020016117399291906132c7565b6040516020818303038152906040525b9392505050565b600d60205260009081526040902080546001820154600283018054929391926117789061309d565b80601f01602080910402602001604051908101604052809291908181526020018280546117a49061309d565b80156117f15780601f106117c6576101008083540402835291602001916117f1565b820191906000526020600020905b8154815290600101906020018083116117d457829003601f168201915b50505060038401546004850154600586015460068701546007909701549596929560ff9092169450925088565b6000828152600a602052604090206001015461183981611ccb565b6108fe8383611d7e565b6001600160a01b03918216600090815260056020908152604080832093909416825291909152205460ff1690565b606080600060015b600c5481116118eb576000818152600d6020526040902060030154851480156118c657506000818152600d6020526040812060049081015460ff16908111156118c4576118c4612baa565b145b156118d957816118d581613285565b9250505b806118e381613285565b915050611879565b508067ffffffffffffffff81111561190557611905612ac9565b60405190808252806020026020018201604052801561193857816020015b60608152602001906001900390816119235790505b5092508067ffffffffffffffff81111561195457611954612ac9565b60405190808252806020026020018201604052801561197d578160200160208202803683370190505b509150600060015b600c548111611acc576000818152600d6020526040902060030154861480156119d257506000818152600d6020526040812060049081015460ff16908111156119d0576119d0612baa565b145b15611aba576000818152600d6020526040902060020180546119f39061309d565b80601f0160208091040260200160405190810160405280929190818152602001828054611a1f9061309d565b8015611a6c5780601f10611a4157610100808354040283529160200191611a6c565b820191906000526020600020905b815481529060010190602001808311611a4f57829003601f168201915b5050505050858381518110611a8357611a83613153565b602002602001018190525080848381518110611aa157611aa1613153565b602090810291909101015281611ab681613285565b9250505b80611ac481613285565b915050611985565b505050915091565b60008051602061337a833981519152611aec81611ccb565b611af4611e3d565b611afd84611cd5565b611b195760405162461bcd60e51b8152600401610742906130f3565b6000848152600d602052604090206004808201805460ff81169287929160ff1916906001908490811115611b4f57611b4f612baa565b0217905550600382018490556000868152600f6020908152604091829020825160a081018452878152918201879052339282019290925242606082015260808101611b9988612162565b905281546001808201845560009384526020938490208351600590930201918255928201519281019290925560408101516002830180546001600160a01b0319166001600160a01b039092169190911790556060810151600383015560808101519091906004820190611c0c90826131af565b505050857fae546fafd30f0ecc89a3b61d28cfeba2167858993b09e8de6b6fc66e98535251828787604051611c439392919061312a565b60405180910390a2505050505050565b60006001600160e01b03198216637965db0b60e01b14806106045750610604826122c2565b6000818152600260205260408120546001600160a01b03168061060457604051637e27328960e01b815260048101849052602401610742565b610a6283838360016122e7565b60006110948484846123ed565b610c4a81336124ba565b60008082118015610604575050600c54101590565b6000611cf68383611149565b611d76576000838152600a602090815260408083206001600160a01b03861684529091529020805460ff19166001179055611d2e3390565b6001600160a01b0316826001600160a01b0316847f2f8788117e7eff1d82e926ec794901d17c78024a50270940304540a733656f0d60405160405180910390a4506001610604565b506000610604565b6000611d8a8383611149565b15611d76576000838152600a602090815260408083206001600160a01b0386168085529252808320805460ff1916905551339286917ff6391f5c32d9c69d2a47ea670b442974b53935d1edc7fd64eb21e047a839171b9190a4506001610604565b611df36124f3565b600b805460ff191690557f5db9ee0a495bf2e6ff9c91a7834c1ba4fdd244a5e8aa4e537bd38aeae4b073aa335b6040516001600160a01b03909116815260200160405180910390a1565b600b5460ff1615611e615760405163d93c066560e01b815260040160405180910390fd5b565b611e6b611e3d565b600b805460ff191660011790557f62e78cea01bee320cd4e420270b5ea74000d11b0c9f74754ebdbfc544b05a258611e203390565b6001600160a01b038216611eca57604051633250574960e11b815260006004820152602401610742565b6000611ed883836000611cbe565b90506001600160a01b03811615610a62576040516339e3563760e11b815260006004820152602401610742565b6001600160a01b038216611f3757604051630b61174360e31b81526001600160a01b0383166004820152602401610742565b6001600160a01b03838116600081815260056020908152604080832094871680845294825291829020805460ff191686151590811790915591519182527f17307eab39ab6107e8899845ad3d59bd9653f200f220920489ca2b5937696c31910160405180910390a3505050565b6001600160a01b0383163b156120c857604051630a85bd0160e11b81526001600160a01b0384169063150b7a0290611fe69088908890879087906004016132f6565b6020604051808303816000875af1925050508015612021575060408051601f3d908101601f1916820190925261201e91810190613333565b60015b61208a573d80801561204f576040519150601f19603f3d011682016040523d82523d6000602084013e612054565b606091505b50805160000361208257604051633250574960e11b81526001600160a01b0385166004820152602401610742565b805160208201fd5b6001600160e01b03198116630a85bd0160e11b146120c657604051633250574960e11b81526001600160a01b0385166004820152602401610742565b505b5050505050565b606060006120dc83612516565b600101905060008167ffffffffffffffff8111156120fc576120fc612ac9565b6040519080825280601f01601f191660200182016040528015612126576020820181803683370190505b5090508181016020015b600019016f181899199a1a9b1b9c1cb0b131b232b360811b600a86061a8153600a850494508461213057509392505050565b6060600082600481111561217857612178612baa565b036121a2575050604080518082019091526009815268092dc4084e4c2dcc6d60bb1b602082015290565b60018260048111156121b6576121b6612baa565b036121e157505060408051808201909152600a815269125b88151c985b9cda5d60b21b602082015290565b60028260048111156121f5576121f5612baa565b0361222357505060408051808201909152600d81526c2bb4ba341021bab9ba37b6b2b960991b602082015290565b600382600481111561223757612237612baa565b0361226357505060408051808201909152600b81526a4d61696e74656e616e636560a81b602082015290565b600482600481111561227757612277612baa565b0361229f57505060408051808201909152600781526614995d1a5c995960ca1b602082015290565b50506040805180820190915260078152662ab735b737bbb760c91b602082015290565b60006001600160e01b0319821663780e9d6360e01b14806106045750610604826125ee565b80806122fb57506001600160a01b03821615155b156123bd57600061230b84611c78565b90506001600160a01b038316158015906123375750826001600160a01b0316816001600160a01b031614155b801561234a57506123488184611843565b155b156123735760405163a9fbf51f60e01b81526001600160a01b0384166004820152602401610742565b81156123bb5783856001600160a01b0316826001600160a01b03167f8c5be1e5ebec7d5bd14f71427d1e84f3dd0314c0f7b2291e5b200ac8c7c3b92560405160405180910390a45b505b5050600090815260046020526040902080546001600160a01b0319166001600160a01b0392909216919091179055565b6000806123fb85858561263e565b90506001600160a01b0381166124585761245384600880546000838152600960205260408120829055600182018355919091527ff3f7a9fe364faab93b216da50a3214154f22a0a2b415b23a84c8169e8b636ee30155565b61247b565b846001600160a01b0316816001600160a01b03161461247b5761247b8185612737565b6001600160a01b03851661249757612492846127b8565b611094565b846001600160a01b0316816001600160a01b031614611094576110948585612867565b6124c48282611149565b6106d05760405163e2517d3f60e01b81526001600160a01b038216600482015260248101839052604401610742565b600b5460ff16611e6157604051638dfc202b60e01b815260040160405180910390fd5b60008072184f03e93ff9f4daa797ed6e38ed64bf6a1f0160401b83106125555772184f03e93ff9f4daa797ed6e38ed64bf6a1f0160401b830492506040015b6d04ee2d6d415b85acef81000000008310612581576d04ee2d6d415b85acef8100000000830492506020015b662386f26fc10000831061259f57662386f26fc10000830492506010015b6305f5e10083106125b7576305f5e100830492506008015b61271083106125cb57612710830492506004015b606483106125dd576064830492506002015b600a83106106045760010192915050565b60006001600160e01b031982166380ac58cd60e01b148061261f57506001600160e01b03198216635b5e139f60e01b145b8061060457506301ffc9a760e01b6001600160e01b0319831614610604565b6000828152600260205260408120546001600160a01b039081169083161561266b5761266b8184866128b7565b6001600160a01b038116156126a9576126886000856000806122e7565b6001600160a01b038116600090815260036020526040902080546000190190555b6001600160a01b038516156126d8576001600160a01b0385166000908152600360205260409020805460010190555b60008481526002602052604080822080546001600160a01b0319166001600160a01b0389811691821790925591518793918516917fddf252ad1be2c89b69c2b068fc378daa952ba7f163c4a11628f55a4df523b3ef91a4949350505050565b6000612742836110e1565b6000838152600760209081526040808320546001600160a01b038816845260069092529091209192509081831461279957600083815260208281526040808320548584528184208190558352600790915290208290555b6000938452600760209081526040808620869055938552525081205550565b6008546000906127ca90600190613350565b600083815260096020526040812054600880549394509092849081106127f2576127f2613153565b90600052602060002001549050806008838154811061281357612813613153565b600091825260208083209091019290925582815260099091526040808220849055858252812055600880548061284b5761284b613363565b6001900381819060005260206000200160009055905550505050565b60006001612874846110e1565b61287e9190613350565b6001600160a01b039093166000908152600660209081526040808320868452825280832085905593825260079052919091209190915550565b6128c283838361291b565b610a62576001600160a01b0383166128f057604051637e27328960e01b815260048101829052602401610742565b60405163177e802f60e01b81526001600160a01b038316600482015260248101829052604401610742565b60006001600160a01b038316158015906110945750826001600160a01b0316846001600160a01b0316148061295557506129558484611843565b806110945750506000908152600460205260409020546001600160a01b03908116911614919050565b60405180610100016040528060008152602001600081526020016060815260200160008152602001600060048111156129b9576129b9612baa565b81526020016000815260200160008152602001600081525090565b6001600160e01b031981168114610c4a57600080fd5b6000602082840312156129fc57600080fd5b8135611749816129d4565b60005b83811015612a22578181015183820152602001612a0a565b50506000910152565b60008151808452612a43816020860160208601612a07565b601f01601f19169290920160200192915050565b6020815260006117496020830184612a2b565b600060208284031215612a7c57600080fd5b5035919050565b80356001600160a01b0381168114612a9a57600080fd5b919050565b60008060408385031215612ab257600080fd5b612abb83612a83565b946020939093013593505050565b634e487b7160e01b600052604160045260246000fd5b600067ffffffffffffffff80841115612afa57612afa612ac9565b604051601f8501601f19908116603f01168101908282118183101715612b2257612b22612ac9565b81604052809350858152868686011115612b3b57600080fd5b858560208301376000602087830101525050509392505050565b600082601f830112612b6657600080fd5b61174983833560208501612adf565b600060208284031215612b8757600080fd5b813567ffffffffffffffff811115612b9e57600080fd5b61109484828501612b55565b634e487b7160e01b600052602160045260246000fd5b60058110612bde57634e487b7160e01b600052602160045260246000fd5b9052565b600061010082518452602083015160208501526040830151816040860152612c0c82860182612a2b565b915050606083015160608501526080830151612c2b6080860182612bc0565b5060a083015160a085015260c083015160c085015260e083015160e08501528091505092915050565b8281526040602082015260006110946040830184612be2565b600080600060608486031215612c8257600080fd5b612c8b84612a83565b9250612c9960208501612a83565b9150604084013590509250925092565b60008060408385031215612cbc57600080fd5b82359150612ccc60208401612a83565b90509250929050565b60006020808301818452808551808352604092508286019150828160051b87010184880160005b83811015612d6557888303603f190185528151805184528781015188850152868101516001600160a01b0316878501526060808201519085015260809081015160a091850182905290612d5181860183612a2b565b968901969450505090860190600101612cfc565b509098975050505050505050565b600080600060608486031215612d8857600080fd5b505081359360208301359350604090920135919050565b60008060408385031215612db257600080fd5b50508035926020909101359150565b600060208284031215612dd357600080fd5b61174982612a83565b6020815260006117496020830184612be2565b600080600080600060a08688031215612e0757600080fd5b8535945060208601359350604086013567ffffffffffffffff811115612e2c57600080fd5b612e3888828901612b55565b9598949750949560608101359550608001359392505050565b60008060408385031215612e6457600080fd5b612e6d83612a83565b915060208301358015158114612e8257600080fd5b809150509250929050565b60008060008060808587031215612ea357600080fd5b612eac85612a83565b9350612eba60208601612a83565b925060408501359150606085013567ffffffffffffffff811115612edd57600080fd5b8501601f81018713612eee57600080fd5b612efd87823560208401612adf565b91505092959194509250565b85815284602082015260018060a01b038416604082015282606082015260a060808201526000612f3c60a0830184612a2b565b979650505050505050565b60006101008a8352896020840152806040840152612f678184018a612a2b565b915050866060830152612f7d6080830187612bc0565b8460a08301528360c08301528260e08301529998505050505050505050565b60008060408385031215612faf57600080fd5b612fb883612a83565b9150612ccc60208401612a83565b6000604082016040835280855180835260608501915060608160051b8601019250602080880160005b8381101561301d57605f1988870301855261300b868351612a2b565b95509382019390820190600101612fef565b50508584038187015286518085528782019482019350915060005b8281101561305457845184529381019392810192600101613038565b5091979650505050505050565b60008060006060848603121561307657600080fd5b8335925060208401356005811061308c57600080fd5b929592945050506040919091013590565b600181811c908216806130b157607f821691505b6020821081036130d157634e487b7160e01b600052602260045260246000fd5b50919050565b600082516130e9818460208701612a07565b9190910192915050565b60208082526017908201527f43796c696e64657220646f6573206e6f74206578697374000000000000000000604082015260600190565b606081016131388286612bc0565b6131456020830185612bc0565b826040830152949350505050565b634e487b7160e01b600052603260045260246000fd5b601f821115610a6257600081815260208120601f850160051c810160208610156131905750805b601f850160051c820191505b818110156120c65782815560010161319c565b815167ffffffffffffffff8111156131c9576131c9612ac9565b6131dd816131d7845461309d565b84613169565b602080601f83116001811461321257600084156131fa5750858301515b600019600386901b1c1916600185901b1785556120c6565b600085815260208120601f198616915b8281101561324157888601518255948401946001909101908401613222565b508582101561325f5787850151600019600388901b60f8161c191681555b5050505050600190811b01905550565b634e487b7160e01b600052601160045260246000fd5b6000600182016132975761329761326f565b5060010190565b8381526060602082015260006132b76060830185612a2b565b9050826040830152949350505050565b600083516132d9818460208801612a07565b8351908301906132ed818360208801612a07565b01949350505050565b6001600160a01b038581168252841660208201526040810183905260806060820181905260009061332990830184612a2b565b9695505050505050565b60006020828403121561334557600080fd5b8151611749816129d4565b818103818111156106045761060461326f565b634e487b7160e01b600052603160045260246000fdfe45f38dbdf8e6d346f59dbe508e964d6aad44a9632bbdf1d41126e061be7824285246556c0ab216b5b325ad7c539bfbd1a07c768773cdf810fecd3c3375c27407a264697066735822122033d9ec7edddccaf1bea70c12f3f0f4b4106582f2f9087014338edac444c5038064736f6c63430008140033",
  "linkReferences": {},
  "deployedLinkReferences": {}
}