{
  "_format": "hh-sol-artifact-1",
  "contractName": "CompanyManager",
  "sourceName": "contracts/CompanyManager.sol",
  "abi": [
    {
      "inputs": [],
      "stateMutability": "nonpayable",
      "type": "constructor"
    },
    {
      "inputs": [],
      "name": "AccessControlBadConfirmation",
      "type": "error"
    },
    {
      "inputs": [
        {
          "internalType": "address",
          "name": "account",
          "type": "address"
        },
        {
          "internalType": "bytes32",
          "name": "neededRole",
          "type": "bytes32"
        }
      ],
      "name": "AccessControlUnauthorizedAccount",
      "type": "error"
    },
    {
      "inputs": [],
      "name": "EnforcedPause",
      "type": "error"
    },
    {
      "inputs": [],
      "name": "ExpectedPause",
      "type": "error"
    },
    {
      "anonymous": false,
      "inputs": [
        {
          "indexed": true,
          "internalType": "uint256",
          "name": "branchId",
          "type": "uint256"
        },
        {
          "indexed": true,
          "internalType": "uint256",
          "name": "companyId",
          "type": "uint256"
        },
        {
          "indexed": false,
          "internalType": "string",
          "name": "name",
          "type": "string"
        },
        {
          "indexed": false,
          "internalType": "string",
          "name": "district",
          "type": "string"
        }
      ],
      "name": "BranchRegistered",
      "type": "event"
    },
    {
      "anonymous": false,
      "inputs": [
        {
          "indexed": true,
          "internalType": "uint256",
          "name": "branchId",
          "type": "uint256"
        },
        {
          "indexed": false,
          "internalType": "bool",
          "name": "isActive",
          "type": "bool"
        }
      ],
      "name": "BranchUpdated",
      "type": "event"
    },
    {
      "anonymous": false,
      "inputs": [
        {
          "indexed": true,
          "internalType": "uint256",
          "name": "companyId",
          "type": "uint256"
        },
        {
          "indexed": false,
          "internalType": "string",
          "name": "name",
          "type": "string"
        },
        {
          "indexed": false,
          "internalType": "string",
          "name": "code",
          "type": "string"
        }
      ],
      "name": "CompanyRegistered",
      "type": "event"
    },
    {
      "anonymous": false,
      "inputs": [
        {
          "indexed": true,
          "internalType": "uint256",
          "name": "companyId",
          "type": "uint256"
        },
        {
          "indexed": false,
          "internalType": "bool",
          "name": "isActive",
          "type": "bool"
        }
      ],
      "name": "CompanyUpdated",
      "type": "event"
    },
    {
      "anonymous": false,
      "inputs": [
        {
          "indexed": true,
          "internalType": "uint256",
          "name": "typeId",
          "type": "uint256"
        },
        {
          "indexed": true,
          "internalType": "uint256",
          "name": "companyId",
          "type": "uint256"
        },
        {
          "indexed": false,
          "internalType": "uint256",
          "name": "capacityKg",
          "type": "uint256"
        }
      ],
      "name": "CylinderTypeRegistered",
      "type": "event"
    },
    {
      "anonymous": false,
      "inputs": [
        {
          "indexed": true,
          "internalType": "uint256",
          "name": "branchId",
          "type": "uint256"
        },
        {
          "indexed": true,
          "internalType": "uint256",
          "name": "cylinderTypeId",
          "type": "uint256"
        },
        {
          "indexed": false,
          "internalType": "uint256",
          "name": "newCount",
          "type": "uint256"
        }
      ],
      "name": "InventoryUpdated",
      "type": "event"
    },
    {
      "anonymous": false,
      "inputs": [
        {
          "indexed": false,
          "internalType": "address",
          "name": "account",
          "type": "address"
        }
      ],
      "name": "Paused",
      "type": "event"
    },
    {
      "anonymous": false,
      "inputs": [
        {
          "indexed": true,
          "internalType": "bytes32",
          "name": "role",
          "type": "bytes32"
        },
        {
          "indexed": true,
          "internalType": "bytes32",
          "name": "previousAdminRole",
          "type": "bytes32"
        },
        {
          "indexed": true,
          "internalType": "bytes32",
          "name": "newAdminRole",
          "type": "bytes32"
        }
      ],
      "name": "RoleAdminChanged",
      "type": "event"
    },
    {
      "anonymous": false,
      "inputs": [
        {
          "indexed": true,
          "internalType": "bytes32",
          "name": "role",
          "type": "bytes32"
        },
        {
          "indexed": true,
          "internalType": "address",
          "name": "account",
          "type": "address"
        },
        {
          "indexed": true,
          "internalType": "address",
          "name": "sender",
          "type": "address"
        }
      ],
      "name": "RoleGranted",
      "type": "event"
    },
    {
      "anonymous": false,
      "inputs": [
        {
          "indexed": true,
          "internalType": "bytes32",
          "name": "role",
          "type": "bytes32"
        },
        {
          "indexed": true,
          "internalType": "address",
          "name": "account",
          "type": "address"
        },
        {
          "indexed": true,
          "internalType": "address",
          "name": "sender",
          "type": "address"
        }
      ],
      "name": "RoleRevoked",
      "type": "event"
    },
    {
      "anonymous": false,
      "inputs": [
        {
          "indexed": true,
          "internalType": "address",
          "name": "staff",
          "type": "address"
        },
        {
          "indexed": true,
          "internalType": "uint256",
          "name": "companyId",
          "type": "uint256"
        },
        {
          "indexed": true,
          "internalType": "uint256",
          "name": "branchId",
          "type": "uint256"
        }
      ],
      "name": "StaffAssigned",
      "type": "event"
    },
    {
      "anonymous": false,
      "inputs": [
        {
          "indexed": true,
          "internalType": "address",
          "name": "staff",
          "type": "address"
        }
      ],
      "name": "StaffRemoved",
      "type": "event"
    },
    {
      "anonymous": false,
      "inputs": [
        {
          "indexed": false,
          "internalType": "address",
          "name": "account",
          "type": "address"
        }
      ],
      "name": "Unpaused",
      "type": "event"
    },
    {
      "inputs": [],
      "name": "BRANCH_STAFF_ROLE",
      "outputs": [
        {
          "internalType": "bytes32",
          "name": "",
          "type": "bytes32"
        }
      ],
      "stateMutability": "view",
      "type": "function"
    },
    {
      "inputs": [],
      "name": "COMPANY_ADMIN_ROLE",
      "outputs": [
        {
          "internalType": "bytes32",
          "name": "",
          "type": "bytes32"
        }
      ],
      "stateMutability": "view",
      "type": "function"
    },
    {
      "inputs": [],
      "name": "DEFAULT_ADMIN_ROLE",
      "outputs": [
        {
          "internalType": "bytes32",
          "name": "",
          "type": "bytes32"
        }
      ],
      "stateMutability": "view",
      "type": "function"
    },
    {
      "inputs": [],
      "name": "PLATFORM_ADMIN_ROLE",
      "outputs": [
        {
          "internalType": "bytes32",
          "name": "",
          "type": "bytes32"
        }
      ],
      "stateMutability": "view",
      "type": "function"
    },
    {
      "inputs": [
        {
          "internalType": "address",
          "name": "staff",
          "type": "address"
        },
        {
          "internalType": "uint256",
          "name": "companyId",
          "type": "uint256"
        },
        {
          "internalType": "uint256",
          "name": "branchId",
          "type": "uint256"
        }
      ],
      "name": "assignBranchStaff",
      "outputs": [],
      "stateMutability": "nonpayable",
      "type": "function"
    },
    {
      "inputs": [
        {
          "internalType": "address",
          "name": "admin",
          "type": "address"
        },
        {
          "internalType": "uint256",
          "name": "companyId",
          "type": "uint256"
        }
      ],
      "name": "assignCompanyAdmin",
      "outputs": [],
      "stateMutability": "nonpayable",
      "type": "function"
    },
    {
      "inputs": [],
      "name": "branchCount",
      "outputs": [
        {
          "internalType": "uint256",
          "name": "",
          "type": "uint256"
        }
      ],
      "stateMutability": "view",
      "type": "function"
    },
    {
      "inputs": [
        {
          "internalType": "uint256",
          "name": "",
          "type": "uint256"
        },
        {
          "internalType": "uint256",
          "name": "",
          "type": "uint256"
        }
      ],
      "name": "branchInventory",
      "outputs": [
        {
          "internalType": "uint256",
          "name": "",
          "type": "uint256"
        }
      ],
      "stateMutability": "view",
      "type": "function"
    },
    {
      "inputs": [
        {
          "internalType": "uint256",
          "name": "",
          "type": "uint256"
        }
      ],
      "name": "branches",
      "outputs": [
        {
          "internalType": "uint256",
          "name": "id",
          "type": "uint256"
        },
        {
          "internalType": "uint256",
          "name": "companyId",
          "type": "uint256"
        },
        {
          "internalType": "string",
          "name": "name",
          "type": "string"
        },
        {
          "internalType": "string",
          "name": "district",
          "type": "string"
        },
        {
          "internalType": "string",
          "name": "location",
          "type": "string"
        },
        {
          "internalType": "bool",
          "name": "isActive",
          "type": "bool"
        },
        {
          "internalType": "uint256",
          "name": "createdAt",
          "type": "uint256"
        }
      ],
      "stateMutability": "view",
      "type": "function"
    },
    {
      "inputs": [
        {
          "internalType": "uint256",
          "name": "",
          "type": "uint256"
        }
      ],
      "name": "companies",
      "outputs": [
        {
          "internalType": "uint256",
          "name": "id",
          "type": "uint256"
        },
        {
          "internalType": "string",
          "name": "name",
          "type": "string"
        },
        {
          "internalType": "string",
          "name": "code",
          "type": "string"
        },
        {
          "internalType": "bool",
          "name": "isActive",
          "type": "bool"
        },
        {
          "internalType": "address",
          "name": "adminWallet",
          "type": "address"
        },
        {
          "internalType": "uint256",
          "name": "createdAt",
          "type": "uint256"
        }
      ],
      "stateMutability": "view",
      "type": "function"
    },
    {
      "inputs": [
        {
          "internalType": "uint256",
          "name": "",
          "type": "uint256"
        },
        {
          "internalType": "uint256",
          "name": "",
          "type": "uint256"
        }
      ],
      "name": "companyBranches",
      "outputs": [
        {
          "internalType": "uint256",
          "name": "",
          "type": "uint256"
        }
      ],
      "stateMutability": "view",
      "type": "function"
    },
    {
      "inputs": [
        {
          "internalType": "uint256",
          "name": "",
          "type": "uint256"
        }
      ],
      "name": "companyBranchesInitialized",
      "outputs": [
        {
          "internalType": "bool",
          "name": "",
          "type": "bool"
        }
      ],
      "stateMutability": "view",
      "type": "function"
    },
    {
      "inputs": [
        {
          "internalType": "string",
          "name": "",
          "type": "string"
        }
      ],
      "name": "companyCodeToId",
      "outputs": [
        {
          "internalType": "uint256",
          "name": "",
          "type": "uint256"
        }
      ],
      "stateMutability": "view",
      "type": "function"
    },
    {
      "inputs": [],
      "name": "companyCount",
      "outputs": [
        {
          "internalType": "uint256",
          "name": "",
          "type": "uint256"
        }
      ],
      "stateMutability": "view",
      "type": "function"
    },
    {
      "inputs": [],
      "name": "cylinderTypeCount",
      "outputs": [
        {
          "internalType": "uint256",
          "name": "",
          "type": "uint256"
        }
      ],
      "stateMutability": "view",
      "type": "function"
    },
    {
      "inputs": [
        {
          "internalType": "uint256",
          "name": "",
          "type": "uint256"
        }
      ],
      "name": "cylinderTypes",
      "outputs": [
        {
          "internalType": "uint256",
          "name": "id",
          "type": "uint256"
        },
        {
          "internalType": "uint256",
          "name": "companyId",
          "type": "uint256"
        },
        {
          "internalType": "string",
          "name": "name",
          "type": "string"
        },
        {
          "internalType": "uint256",
          "name": "capacityKg",
          "type": "uint256"
        },
        {
          "internalType": "uint256",
          "name": "depositAmount",
          "type": "uint256"
        },
        {
          "internalType": "bool",
          "name": "isActive",
          "type": "bool"
        }
      ],
      "stateMutability": "view",
      "type": "function"
    },
    {
      "inputs": [
        {
          "internalType": "uint256",
          "name": "companyId",
          "type": "uint256"
        }
      ],
      "name": "getAllActiveBranches",
      "outputs": [
        {
          "internalType": "uint256[]",
          "name": "",
          "type": "uint256[]"
        }
      ],
      "stateMutability": "view",
      "type": "function"
    },
    {
      "inputs": [],
      "name": "getAllActiveCompanies",
      "outputs": [
        {
          "internalType": "uint256[]",
          "name": "",
          "type": "uint256[]"
        }
      ],
      "stateMutability": "view",
      "type": "function"
    },
    {
      "inputs": [],
      "name": "getAllDistricts",
      "outputs": [
        {
          "internalType": "string[30]",
          "name": "",
          "type": "string[30]"
        }
      ],
      "stateMutability": "view",
      "type": "function"
    },
    {
      "inputs": [
        {
          "internalType": "uint256",
          "name": "branchId",
          "type": "uint256"
        }
      ],
      "name": "getBranch",
      "outputs": [
        {
          "components": [
            {
              "internalType": "uint256",
              "name": "id",
              "type": "uint256"
            },
            {
              "internalType": "uint256",
              "name": "companyId",
              "type": "uint256"
            },
            {
              "internalType": "string",
              "name": "name",
              "type": "string"
            },
            {
              "internalType": "string",
              "name": "district",
              "type": "string"
            },
            {
              "internalType": "string",
              "name": "location",
              "type": "string"
            },
            {
              "internalType": "bool",
              "name": "isActive",
              "type": "bool"
            },
            {
              "internalType": "uint256",
              "name": "createdAt",
              "type": "uint256"
            }
          ],
          "internalType": "struct CompanyManager.Branch",
          "name": "",
          "type": "tuple"
        }
      ],
      "stateMutability": "view",
      "type": "function"
    },
    {
      "inputs": [
        {
          "internalType": "uint256",
          "name": "companyId",
          "type": "uint256"
        },
        {
          "internalType": "uint256",
          "name": "districtIndex",
          "type": "uint256"
        }
      ],
      "name": "getBranchByCompanyAndDistrict",
      "outputs": [
        {
          "internalType": "uint256",
          "name": "",
          "type": "uint256"
        }
      ],
      "stateMutability": "view",
      "type": "function"
    },
    {
      "inputs": [
        {
          "internalType": "uint256",
          "name": "branchId",
          "type": "uint256"
        }
      ],
      "name": "getBranchCompany",
      "outputs": [
        {
          "internalType": "uint256",
          "name": "",
          "type": "uint256"
        }
      ],
      "stateMutability": "view",
      "type": "function"
    },
    {
      "inputs": [
        {
          "internalType": "uint256",
          "name": "branchId",
          "type": "uint256"
        },
        {
          "internalType": "uint256",
          "name": "cylinderTypeId",
          "type": "uint256"
        }
      ],
      "name": "getBranchInventory",
      "outputs": [
        {
          "internalType": "uint256",
          "name": "",
          "type": "uint256"
        }
      ],
      "stateMutability": "view",
      "type": "function"
    },
    {
      "inputs": [
        {
          "internalType": "uint256",
          "name": "districtIndex",
          "type": "uint256"
        }
      ],
      "name": "getBranchesByDistrict",
      "outputs": [
        {
          "internalType": "uint256[]",
          "name": "",
          "type": "uint256[]"
        }
      ],
      "stateMutability": "view",
      "type": "function"
    },
    {
      "inputs": [
        {
          "internalType": "uint256",
          "name": "companyId",
          "type": "uint256"
        }
      ],
      "name": "getCompany",
      "outputs": [
        {
          "components": [
            {
              "internalType": "uint256",
              "name": "id",
              "type": "uint256"
            },
            {
              "internalType": "string",
              "name": "name",
              "type": "string"
            },
            {
              "internalType": "string",
              "name": "code",
              "type": "string"
            },
            {
              "internalType": "bool",
              "name": "isActive",
              "type": "bool"
            },
            {
              "internalType": "address",
              "name": "adminWallet",
              "type": "address"
            },
            {
              "internalType": "uint256",
              "name": "createdAt",
              "type": "uint256"
            }
          ],
          "internalType": "struct CompanyManager.Company",
          "name": "",
          "type": "tuple"
        }
      ],
      "stateMutability": "view",
      "type": "function"
    },
    {
      "inputs": [
        {
          "internalType": "uint256",
          "name": "companyId",
          "type": "uint256"
        }
      ],
      "name": "getCompanyBranches",
      "outputs": [
        {
          "internalType": "uint256[]",
          "name": "",
          "type": "uint256[]"
        }
      ],
      "stateMutability": "view",
      "type": "function"
    },
    {
      "inputs": [
        {
          "internalType": "string",
          "name": "code",
          "type": "string"
        }
      ],
      "name": "getCompanyByCode",
      "outputs": [
        {
          "components": [
            {
              "internalType": "uint256",
              "name": "id",
              "type": "uint256"
            },
            {
              "internalType": "string",
              "name": "name",
              "type": "string"
            },
            {
              "internalType": "string",
              "name": "code",
              "type": "string"
            },
            {
              "internalType": "bool",
              "name": "isActive",
              "type": "bool"
            },
            {
              "internalType": "address",
              "name": "adminWallet",
              "type": "address"
            },
            {
              "internalType": "uint256",
              "name": "createdAt",
              "type": "uint256"
            }
          ],
          "internalType": "struct CompanyManager.Company",
          "name": "",
          "type": "tuple"
        }
      ],
      "stateMutability": "view",
      "type": "function"
    },
    {
      "inputs": [
        {
          "internalType": "uint256",
          "name": "companyId",
          "type": "uint256"
        }
      ],
      "name": "getCompanyCylinderTypes",
      "outputs": [
        {
          "internalType": "uint256[]",
          "name": "",
          "type": "uint256[]"
        }
      ],
      "stateMutability": "view",
      "type": "function"
    },
    {
      "inputs": [
        {
          "internalType": "uint256",
          "name": "typeId",
          "type": "uint256"
        }
      ],
      "name": "getCylinderType",
      "outputs": [
        {
          "components": [
            {
              "internalType": "uint256",
              "name": "id",
              "type": "uint256"
            },
            {
              "internalType": "uint256",
              "name": "companyId",
              "type": "uint256"
            },
            {
              "internalType": "string",
              "name": "name",
              "type": "string"
            },
            {
              "internalType": "uint256",
              "name": "capacityKg",
              "type": "uint256"
            },
            {
              "internalType": "uint256",
              "name": "depositAmount",
              "type": "uint256"
            },
            {
              "internalType": "bool",
              "name": "isActive",
              "type": "bool"
            }
          ],
          "internalType": "struct CompanyManager.CylinderType",
          "name": "",
          "type": "tuple"
        }
      ],
      "stateMutability": "view",
      "type": "function"
    },
    {
      "inputs": [
        {
          "internalType": "uint256",
          "name": "districtIndex",
          "type": "uint256"
        }
      ],
      "name": "getDistrictName",
      "outputs": [
        {
          "internalType": "string",
          "name": "",
          "type": "string"
        }
      ],
      "stateMutability": "view",
      "type": "function"
    },
    {
      "inputs": [
        {
          "internalType": "bytes32",
          "name": "role",
          "type": "bytes32"
        }
      ],
      "name": "getRoleAdmin",
      "outputs": [
        {
          "internalType": "bytes32",
          "name": "",
          "type": "bytes32"
        }
      ],
      "stateMutability": "view",
      "type": "function"
    },
    {
      "inputs": [
        {
          "internalType": "address",
          "name": "staff",
          "type": "address"
        }
      ],
      "name": "getStaffBranch",
      "outputs": [
        {
          "internalType": "uint256",
          "name": "",
          "type": "uint256"
        }
      ],
      "stateMutability": "view",
      "type": "function"
    },
    {
      "inputs": [
        {
          "internalType": "address",
          "name": "staff",
          "type": "address"
        }
      ],
      "name": "getStaffCompany",
      "outputs": [
        {
          "internalType": "uint256",
          "name": "",
          "type": "uint256"
        }
      ],
      "stateMutability": "view",
      "type": "function"
    },
    {
      "inputs": [],
      "name": "getTotalBranchCount",
      "outputs": [
        {
          "internalType": "uint256",
          "name": "",
          "type": "uint256"
        }
      ],
      "stateMutability": "view",
      "type": "function"
    },
    {
      "inputs": [
        {
          "internalType": "bytes32",
          "name": "role",
          "type": "bytes32"
        },
        {
          "internalType": "address",
          "name": "account",
          "type": "address"
        }
      ],
      "name": "grantRole",
      "outputs": [],
      "stateMutability": "nonpayable",
      "type": "function"
    },
    {
      "inputs": [
        {
          "internalType": "bytes32",
          "name": "role",
          "type": "bytes32"
        },
        {
          "internalType": "address",
          "name": "account",
          "type": "address"
        }
      ],
      "name": "hasRole",
      "outputs": [
        {
          "internalType": "bool",
          "name": "",
          "type": "bool"
        }
      ],
      "stateMutability": "view",
      "type": "function"
    },
    {
      "inputs": [],
      "name": "initializeAllBranches",
      "outputs": [],
      "stateMutability": "nonpayable",
      "type": "function"
    },
    {
      "inputs": [
        {
          "internalType": "uint256",
          "name": "companyId",
          "type": "uint256"
        }
      ],
      "name": "initializeCompanyBranches",
      "outputs": [],
      "stateMutability": "nonpayable",
      "type": "function"
    },
    {
      "inputs": [
        {
          "internalType": "address",
          "name": "staff",
          "type": "address"
        },
        {
          "internalType": "uint256",
          "name": "branchId",
          "type": "uint256"
        }
      ],
      "name": "isBranchStaff",
      "outputs": [
        {
          "internalType": "bool",
          "name": "",
          "type": "bool"
        }
      ],
      "stateMutability": "view",
      "type": "function"
    },
    {
      "inputs": [
        {
          "internalType": "address",
          "name": "staff",
          "type": "address"
        },
        {
          "internalType": "uint256",
          "name": "companyId",
          "type": "uint256"
        }
      ],
      "name": "isCompanyStaff",
      "outputs": [
        {
          "internalType": "bool",
          "name": "",
          "type": "bool"
        }
      ],
      "stateMutability": "view",
      "type": "function"
    },
    {
      "inputs": [
        {
          "internalType": "uint256",
          "name": "branchId",
          "type": "uint256"
        }
      ],
      "name": "isValidBranch",
      "outputs": [
        {
          "internalType": "bool",
          "name": "",
          "type": "bool"
        }
      ],
      "stateMutability": "view",
      "type": "function"
    },
    {
      "inputs": [
        {
          "internalType": "uint256",
          "name": "companyId",
          "type": "uint256"
        }
      ],
      "name": "isValidCompany",
      "outputs": [
        {
          "internalType": "bool",
          "name": "",
          "type": "bool"
        }
      ],
      "stateMutability": "view",
      "type": "function"
    },
    {
      "inputs": [
        {
          "internalType": "uint256",
          "name": "typeId",
          "type": "uint256"
        }
      ],
      "name": "isValidCylinderType",
      "outputs": [
        {
          "internalType": "bool",
          "name": "",
          "type": "bool"
        }
      ],
      "stateMutability": "view",
      "type": "function"
    },
    {
      "inputs": [],
      "name": "pause",
      "outputs": [],
      "stateMutability": "nonpayable",
      "type": "function"
    },
    {
      "inputs": [],
      "name": "paused",
      "outputs": [
        {
          "internalType": "bool",
          "name": "",
          "type": "bool"
        }
      ],
      "stateMutability": "view",
      "type": "function"
    },
    {
      "inputs": [
        {
          "internalType": "uint256",
          "name": "companyId",
          "type": "uint256"
        },
        {
          "internalType": "string",
          "name": "name",
          "type": "string"
        },
        {
          "internalType": "string",
          "name": "district",
          "type": "string"
        },
        {
          "internalType": "string",
          "name": "location",
          "type": "string"
        }
      ],
      "name": "registerBranch",
      "outputs": [],
      "stateMutability": "nonpayable",
      "type": "function"
    },
    {
      "inputs": [
        {
          "internalType": "string",
          "name": "name",
          "type": "string"
        },
        {
          "internalType": "string",
          "name": "code",
          "type": "string"
        },
        {
          "internalType": "address",
          "name": "adminWallet",
          "type": "address"
        }
      ],
      "name": "registerCompany",
      "outputs": [],
      "stateMutability": "nonpayable",
      "type": "function"
    },
    {
      "inputs": [
        {
          "internalType": "address",
          "name": "staff",
          "type": "address"
        }
      ],
      "name": "removeStaff",
      "outputs": [],
      "stateMutability": "nonpayable",
      "type": "function"
    },
    {
      "inputs": [
        {
          "internalType": "bytes32",
          "name": "role",
          "type": "bytes32"
        },
        {
          "internalType": "address",
          "name": "callerConfirmation",
          "type": "address"
        }
      ],
      "name": "renounceRole",
      "outputs": [],
      "stateMutability": "nonpayable",
      "type": "function"
    },
    {
      "inputs": [
        {
          "internalType": "bytes32",
          "name": "role",
          "type": "bytes32"
        },
        {
          "internalType": "address",
          "name": "account",
          "type": "address"
        }
      ],
      "name": "revokeRole",
      "outputs": [],
      "stateMutability": "nonpayable",
      "type": "function"
    },
    {
      "inputs": [
        {
          "internalType": "address",
          "name": "",
          "type": "address"
        }
      ],
      "name": "staffBranch",
      "outputs": [
        {
          "internalType": "uint256",
          "name": "",
          "type": "uint256"
        }
      ],
      "stateMutability": "view",
      "type": "function"
    },
    {
      "inputs": [
        {
          "internalType": "address",
          "name": "",
          "type": "address"
        }
      ],
      "name": "staffCompany",
      "outputs": [
        {
          "internalType": "uint256",
          "name": "",
          "type": "uint256"
        }
      ],
      "stateMutability": "view",
      "type": "function"
    },
    {
      "inputs": [
        {
          "internalType": "bytes4",
          "name": "interfaceId",
          "type": "bytes4"
        }
      ],
      "name": "supportsInterface",
      "outputs": [
        {
          "internalType": "bool",
          "name": "",
          "type": "bool"
        }
      ],
      "stateMutability": "view",
      "type": "function"
    },
    {
      "inputs": [],
      "name": "unpause",
      "outputs": [],
      "stateMutability": "nonpayable",
      "type": "function"
    },
    {
      "inputs": [
        {
          "internalType": "uint256",
          "name": "branchId",
          "type": "uint256"
        },
        {
          "internalType": "bool",
          "name": "isActive",
          "type": "bool"
        }
      ],
      "name": "updateBranchStatus",
      "outputs": [],
      "stateMutability": "nonpayable",
      "type": "function"
    },
    {
      "inputs": [
        {
          "internalType": "uint256",
          "name": "branchId",
          "type": "uint256"
        },
        {
          "internalType": "uint256",
          "name": "cylinderTypeId",
          "type": "uint256"
        },
        {
          "internalType": "int256",
          "name": "change",
          "type": "int256"
        }
      ],
      "name": "updateInventory",
      "outputs": [],
      "stateMutability": "nonpayable",
      "type": "function"
    }
  ],
  "bytecode": "0x600861044081815267427567657365726160c01b61046052608090815260066104808181526542757265726160d01b6104a05260a05260076104c08181526647616b656e6b6560c81b6104e05260c0526105008281526547617361626f60d01b6105205260e052610540818152664761747369626f60c81b610560526101005261058081815266476963756d626960c81b6105a052610120526105c084815267476973616761726160c01b6105e052610140526004610600908152634875796560e01b6106205261016052610640818152664b616d6f6e796960c81b6106605261018052610680818152664b61726f6e676960c81b6106a0526101a0526106c0818152664b61796f6e7a6160c81b6106e0526101c052610700938452674b6963756b69726f60c01b610720526101e093909352610740818152654b697265686560d01b6107605261020052610780838152664d7568616e676160c81b6107a052610220526107c0838152664d7573616e7a6560c81b6107e052610240526005610800908152644e676f6d6160d81b61082052610260526009610840818152684e676f726f7265726f60b81b6108605261028052610880848152664e79616269687560c81b6108a0526102a0526108c0818152684e796167617461726560b81b6108e0526102c052610900818152684e79616d616761626560b81b610920526102e052600a610940818152694e79616d617368656b6560b01b6109605261030052610980838152654e79616e7a6160d01b6109a052610320526109c0908152694e7961727567656e676560b01b6109e05261034052610a00818152684e796172756775727560b81b610a205261036052610a408281526552756261767560d01b610a605261038052610a8084815266527568616e676f60c81b610aa0526103a052610ac08481526652756c696e646f60c81b610ae0526103c052610b0091825265527573697a6960d01b610b20526103e091909152610b40928352665275747369726f60c81b610b605261040092909252610bc0604052610b80918252685277616d6167616e6160b81b610ba052610420919091526200032390600d90601e62000a90565b503480156200033157600080fd5b506200033f6000336200037d565b506200036c7f5246556c0ab216b5b325ad7c539bfbd1a07c768773cdf810fecd3c3375c27407336200037d565b50620003776200042c565b62000d97565b6000828152602081815260408083206001600160a01b038516845290915281205460ff1662000422576000838152602081815260408083206001600160a01b03861684529091529020805460ff19166001179055620003d93390565b6001600160a01b0316826001600160a01b0316847f2f8788117e7eff1d82e926ec794901d17c78024a50270940304540a733656f0d60405160405180910390a450600162000426565b5060005b92915050565b6200047b604051806040016040528060098152602001685350205277616e646160b81b81525060405180604001604052806002815260200161053560f41b81525060006200066e60201b60201c565b620004d06040518060400160405280600d81526020016c4f72797820456e65726769657360981b8152506040518060400160405280600481526020016309ea4b2b60e31b81525060006200066e60201b60201c565b620005266040518060400160405280600b81526020016a5461686163656c2047617360a81b815250604051806040016040528060078152602001661510521050d15360ca1b81525060006200066e60201b60201c565b6200057c604051806040016040528060098152602001684b6967616c6967617360b81b815250604051806040016040528060098152602001684b4947414c4947415360b81b81525060006200066e60201b60201c565b620005cc60405180604001604052806008815260200167486173682047617360c01b8152506040518060400160405280600481526020016309082a6960e31b81525060006200066e60201b60201c565b6200061c604051806040016040528060088152602001674d6572752047617360c01b815250604051806040016040528060048152602001634d45525560e01b81525060006200066e60201b60201c565b6200066c604051806040016040528060088152602001674a6962752047617360c01b815250604051806040016040528060048152602001634a49425560e01b81525060006200066e60201b60201c565b565b60048054906000620006808362000b5a565b90915550506040805160c08101825260045480825260208083018781528385018790526001606085018190526001600160a01b03871660808601524260a0860152600093845260079092529390912082518155925191929190820190620006e8908262000c27565b5060408201516002820190620006ff908262000c27565b50606082015160038201805460808501516001600160a01b031661010002610100600160a81b0319931515939093166001600160a81b03199091161791909117905560a09091015160049182015554604051600a906200076190859062000d19565b908152604051908190036020019020556004546200077f90620007c2565b6004547f04b0ebf9776978e9387b417ee64c526bdd0e794fbb10b0f74971d6f0e59e2d2e8484604051620007b592919062000d65565b60405180910390a2505050565b60068054906000620007d48362000b5a565b90915550506040805160c081018252600680548083526020808401868152855180870187526007815266366b67204c504760c81b818401528587019081526060860194909452600060808601819052600160a0870181905293815260099092529490208351815593519084015551909190600282019062000856908262000c27565b50606082015160038201556080820151600482015560a0909101516005909101805460ff191691151591909117905560068054604051918252829160008051602062004d648339815191529060200160405180910390a360068054906000620008bf8362000b5a565b90915550506040805160c081018252600654808252602080830185815284518086018652600881526731326b67204c504760c01b81840152848601908152600c6060860152600060808601819052600160a08701819052948152600990935294909120835181559051918101919091559151909190600282019062000945908262000c27565b50606082015160038201556080820151600482015560a0909101516005909101805460ff1916911515919091179055600654604051600c815282919060008051602062004d648339815191529060200160405180910390a360068054906000620009af8362000b5a565b90915550506040805160c081018252600654808252602080830185815284518086018652600881526731356b67204c504760c01b81840152848601908152600f6060860152600060808601819052600160a08701819052948152600990935294909120835181559051918101919091559151909190600282019062000a35908262000c27565b50606082015160038201556080820151600482015560a0909101516005909101805460ff1916911515919091179055600654604051600f815282919060008051602062004d648339815191529060200160405180910390a350565b82601e810192821562000ace579160200282015b8281111562000ace578251829062000abd908262000c27565b509160200191906001019062000aa4565b5062000adc92915062000ae0565b5090565b8082111562000adc57600062000af7828262000b01565b5060010162000ae0565b50805462000b0f9062000b98565b6000825580601f1062000b20575050565b601f01602090049060005260206000209081019062000b40919062000b43565b50565b5b8082111562000adc576000815560010162000b44565b60006001820162000b7b57634e487b7160e01b600052601160045260246000fd5b5060010190565b634e487b7160e01b600052604160045260246000fd5b600181811c9082168062000bad57607f821691505b60208210810362000bce57634e487b7160e01b600052602260045260246000fd5b50919050565b601f82111562000c2257600081815260208120601f850160051c8101602086101562000bfd5750805b601f850160051c820191505b8181101562000c1e5782815560010162000c09565b5050505b505050565b81516001600160401b0381111562000c435762000c4362000b82565b62000c5b8162000c54845462000b98565b8462000bd4565b602080601f83116001811462000c93576000841562000c7a5750858301515b600019600386901b1c1916600185901b17855562000c1e565b600085815260208120601f198616915b8281101562000cc45788860151825594840194600190910190840162000ca3565b508582101562000ce35787850151600019600388901b60f8161c191681555b5050505050600190811b01905550565b60005b8381101562000d1057818101518382015260200162000cf6565b50506000910152565b6000825162000d2d81846020870162000cf3565b9190910192915050565b6000815180845262000d5181602086016020860162000cf3565b601f01601f19169290920160200192915050565b60408152600062000d7a604083018562000d37565b828103602084015262000d8e818562000d37565b95945050505050565b613fbd8062000da76000396000f3fe608060405234801561001057600080fd5b50600436106103785760003560e01c806377b582b9116101d3578063a871c83d11610104578063d738ca28116100a2578063e20db3fe1161007c578063e20db3fe14610817578063e27e2fde14610842578063ea50e1281461086d578063fa2674741461088057600080fd5b8063d738ca28146107dc578063dbb2599f146107fc578063def10b531461080457600080fd5b8063ab445c49116100de578063ab445c491461078c578063c4522c92146107a1578063c96ea900146107b4578063d547741f146107c957600080fd5b8063a871c83d14610753578063a96ab1f514610766578063aa25c5881461077957600080fd5b80638fc17e1d11610171578063927a11b61161014b578063927a11b6146106ef5780639436d0271461070f5780639eda108e14610722578063a217fddf1461074b57600080fd5b80638fc17e1d146106b457806391d14854146106c95780639237b27c146106dc57600080fd5b80638456cb59116101ad5780638456cb591461066b57806387d8b38d146106735780638c5f6755146106985780638e75dd47146106ab57600080fd5b806377b582b91461061d57806382a1bd4e1461062557806383cc76601461064557600080fd5b806336568abe116102ad5780635c975abb1161024b57806366e2b2811161022557806366e2b281146105cf578063685d34ff146105e25780636aaf5d87146105f757806371c0d7cc1461060a57600080fd5b80635c975abb1461059e5780635d7746c0146105a9578063608a9b48146105bc57600080fd5b8063507039ee11610287578063507039ee14610550578063553f3f6a1461057057806357d1391714610583578063583964ec1461059657600080fd5b806336568abe1461052c5780633f4ba83a1461053f57806341931a4a1461054757600080fd5b8063248a9ca31161031a5780632a324818116102f45780632a324818146104d35780632a4d1e13146104f35780632da07f5d146105065780632f2ff15d1461051957600080fd5b8063248a9ca31461046b57806327f9af771461048e5780632813d19d146104ae57600080fd5b806312cd97191161035657806312cd9719146104015780631b28362a146104245780631b973f571461044d5780631be460fa1461046257600080fd5b806301ffc9a71461037d57806308687125146103a5578063110e3a35146103de575b600080fd5b61039061038b36600461346b565b6108a0565b60405190151581526020015b60405180910390f35b6103d06103b3366004613495565b6000918252600b6020908152604080842092845291905290205490565b60405190815260200161039c565b6103d06103ec3660046134b7565b60009081526008602052604090206001015490565b61039061040f3660046134b7565b602b6020526000908152604090205460ff1681565b6103d06104323660046134ec565b6001600160a01b031660009081526003602052604090205490565b61046061045b3660046135aa565b6108d7565b005b6103d060065481565b6103d06104793660046134b7565b60009081526020819052604090206001015490565b6104a161049c3660046134b7565b610bae565b60405161039c919061363c565b6104c16104bc3660046134b7565b610c91565b60405161039c969594939291906136d0565b6103d06104e13660046134ec565b60026020526000908152604090205481565b6104a16105013660046134b7565b610de4565b6103d0610514366004613495565b610e46565b610460610527366004613723565b610e77565b61046061053a366004613723565b610ea2565b610460610eda565b6103d060055481565b61056361055e36600461374f565b610efd565b60405161039c919061378c565b61039061057e3660046134b7565b6110ed565b6105636105913660046134b7565b611120565b6005546103d0565b60015460ff16610390565b6104606105b7366004613804565b6112a8565b6103906105ca366004613878565b611405565b6104606105dd3660046138a2565b611464565b6103d0600080516020613f6883398151915281565b6104606106053660046138d5565b611643565b6103906106183660046134b7565b61178d565b6104606117c0565b6106386106333660046134b7565b611865565b60405161039c919061390a565b6106586106533660046134b7565b61198e565b60405161039c9796959493929190613966565b610460611b65565b6106866106813660046134b7565b611b85565b60405161039c969594939291906139c2565b6104606106a6366004613a01565b611c47565b6103d060045481565b6106bc611e36565b60405161039c9190613a2d565b6103906106d7366004613723565b611efe565b6103906106ea3660046134b7565b611f27565b6107026106fd3660046134b7565b611f5a565b60405161039c9190613a7b565b6104a161071d3660046134b7565b6121a4565b6103d06107303660046134ec565b6001600160a01b031660009081526002602052604090205490565b6103d0600081565b610460610761366004613878565b6122de565b6104a16107743660046134b7565b6123e7565b6103d0610787366004613495565b61259f565b6103d0600080516020613f2883398151915281565b6104606107af3660046134ec565b612663565b6103d0600080516020613f4883398151915281565b6104606107d7366004613723565b61279c565b6107ef6107ea3660046134b7565b6127c1565b60405161039c9190613b0b565b6104a161287d565b610390610812366004613878565b61297e565b6103d0610825366004613495565b600b60209081526000928352604080842090915290825290205481565b6103d061085036600461374f565b8051602081830181018051600a8252928201919093012091525481565b61046061087b3660046134b7565b6129b8565b6103d061088e3660046134ec565b60036020526000908152604090205481565b60006001600160e01b03198216637965db0b60e01b14806108d157506301ffc9a760e01b6001600160e01b03198316145b92915050565b6000841180156108e957506004548411155b61090e5760405162461bcd60e51b815260040161090590613b1e565b60405180910390fd5b60008481526007602052604090206003015460ff166109645760405162461bcd60e51b8152602060048201526012602482015271436f6d70616e79206e6f742061637469766560701b6044820152606401610905565b60008351116109a55760405162461bcd60e51b815260206004820152600d60248201526c13985b59481c995c5d5a5c9959609a1b6044820152606401610905565b60008251116109ea5760405162461bcd60e51b8152602060048201526011602482015270111a5cdd1c9a58dd081c995c5d5a5c9959607a1b6044820152606401610905565b610a02600080516020613f6883398151915233611efe565b80610a3a5750610a20600080516020613f4883398151915233611efe565b8015610a3a57503360009081526002602052604090205484145b610a775760405162461bcd60e51b815260206004820152600e60248201526d139bdd08185d5d1a1bdc9a5e995960921b6044820152606401610905565b60058054906000610a8783613b5d565b90915550506040805160e08101825260055480825260208083018881528385018881526060850188905260808501879052600160a086018190524260c087015260009485526008909352949092208351815591519082015591519091906002820190610af39082613bfe565b5060608201516003820190610b089082613bfe565b5060808201516004820190610b1d9082613bfe565b5060a08201516005828101805460ff19169215159290921790915560c0909201516006909101556000858152600c60209081526040808320845481546001810183559185529290932090920155905490518591907f659ed3834b4ed7a42eb3b768d7174a2188abd5bbe5351e3f66394d2d9d53486c90610ba09087908790613cbe565b60405180910390a350505050565b6060601e8210610bd05760405162461bcd60e51b815260040161090590613cec565b600060045467ffffffffffffffff811115610bed57610bed613507565b604051908082528060200260200182016040528015610c16578160200160208202803683370190505b50905060015b6004548111610c8a5783610c31600183613d1c565b610c3c90601e613d2f565b610c469190613d46565b610c51906001613d46565b82610c5d600184613d1c565b81518110610c6d57610c6d613d59565b602090810291909101015280610c8281613b5d565b915050610c1c565b5092915050565b60076020526000908152604090208054600182018054919291610cb390613b76565b80601f0160208091040260200160405190810160405280929190818152602001828054610cdf90613b76565b8015610d2c5780601f10610d0157610100808354040283529160200191610d2c565b820191906000526020600020905b815481529060010190602001808311610d0f57829003601f168201915b505050505090806002018054610d4190613b76565b80601f0160208091040260200160405190810160405280929190818152602001828054610d6d90613b76565b8015610dba5780601f10610d8f57610100808354040283529160200191610dba565b820191906000526020600020905b815481529060010190602001808311610d9d57829003601f168201915b505050506003830154600490930154919260ff8116926101009091046001600160a01b0316915086565b6000818152600c6020908152604091829020805483518184028101840190945280845260609392830182828015610e3a57602002820191906000526020600020905b815481526020019060010190808311610e26575b50505050509050919050565b600c6020528160005260406000208181548110610e6257600080fd5b90600052602060002001600091509150505481565b600082815260208190526040902060010154610e9281612db8565b610e9c8383612dc2565b50505050565b6001600160a01b0381163314610ecb5760405163334bd91960e11b815260040160405180910390fd5b610ed58282612e54565b505050565b600080516020613f68833981519152610ef281612db8565b610efa612ebf565b50565b610f05613402565b6000600a83604051610f179190613d6f565b908152602001604051809103902054905060008111610f6c5760405162461bcd60e51b815260206004820152601160248201527010dbdb5c185b9e481b9bdd08199bdd5b99607a1b6044820152606401610905565b600760008281526020019081526020016000206040518060c001604052908160008201548152602001600182018054610fa490613b76565b80601f0160208091040260200160405190810160405280929190818152602001828054610fd090613b76565b801561101d5780601f10610ff25761010080835404028352916020019161101d565b820191906000526020600020905b81548152906001019060200180831161100057829003601f168201915b5050505050815260200160028201805461103690613b76565b80601f016020809104026020016040519081016040528092919081815260200182805461106290613b76565b80156110af5780601f10611084576101008083540402835291602001916110af565b820191906000526020600020905b81548152906001019060200180831161109257829003601f168201915b5050509183525050600382015460ff81161515602083015261010090046001600160a01b031660408201526004909101546060909101529392505050565b6000808211801561110057506006548211155b80156108d157505060009081526009602052604090206005015460ff1690565b611128613402565b600760008381526020019081526020016000206040518060c00160405290816000820154815260200160018201805461116090613b76565b80601f016020809104026020016040519081016040528092919081815260200182805461118c90613b76565b80156111d95780601f106111ae576101008083540402835291602001916111d9565b820191906000526020600020905b8154815290600101906020018083116111bc57829003601f168201915b505050505081526020016002820180546111f290613b76565b80601f016020809104026020016040519081016040528092919081815260200182805461121e90613b76565b801561126b5780601f106112405761010080835404028352916020019161126b565b820191906000526020600020905b81548152906001019060200180831161124e57829003601f168201915b5050509183525050600382015460ff81161515602083015261010090046001600160a01b0316604082015260049091015460609091015292915050565b600080516020613f688339815191526112c081612db8565b60008451116113015760405162461bcd60e51b815260206004820152600d60248201526c13985b59481c995c5d5a5c9959609a1b6044820152606401610905565b60008351116113425760405162461bcd60e51b815260206004820152600d60248201526c10dbd919481c995c5d5a5c9959609a1b6044820152606401610905565b600a836040516113529190613d6f565b9081526020016040518091039020546000146113b05760405162461bcd60e51b815260206004820152601b60248201527f436f6d70616e7920636f646520616c72656164792065786973747300000000006044820152606401610905565b6113bb848484612f11565b6001600160a01b03821615610e9c576113e2600080516020613f4883398151915283612dc2565b506004546001600160a01b03831660009081526002602052604090205550505050565b6001600160a01b0382166000908152600260205260408120548214801561145d575061143f600080516020613f2883398151915284611efe565b8061145d575061145d600080516020613f4883398151915284611efe565b9392505050565b6001600160a01b0383166114ac5760405162461bcd60e51b815260206004820152600f60248201526e496e76616c6964206164647265737360881b6044820152606401610905565b600082116114f15760405162461bcd60e51b8152602060048201526012602482015271125b9d985b1a590818dbdb5c185b9e48125160721b6044820152606401610905565b600081116115355760405162461bcd60e51b8152602060048201526011602482015270125b9d985b1a5908189c985b98da081251607a1b6044820152606401610905565b61154d600080516020613f6883398151915233611efe565b80611585575061156b600080516020613f4883398151915233611efe565b801561158557503360009081526002602052604090205482145b6115d15760405162461bcd60e51b815260206004820152601e60248201527f4e6f7420617574686f72697a656420746f2061737369676e20737461666600006044820152606401610905565b6115e9600080516020613f2883398151915284612dc2565b506001600160a01b03831660008181526002602090815260408083208690556003909152808220849055518392859290917f90d48eec78a21ecf21a2bc62a8b3a3803f0c40cc6b662df5e7506989fe4af86f9190a4505050565b60008211801561165557506005548211155b6116925760405162461bcd60e51b815260206004820152600e60248201526d092dcecc2d8d2c840c4e4c2dcc6d60931b6044820152606401610905565b6000828152600860205260409020600101546116bc600080516020613f6883398151915233611efe565b806116f457506116da600080516020613f4883398151915233611efe565b80156116f457503360009081526002602052604090205481145b6117315760405162461bcd60e51b815260206004820152600e60248201526d139bdd08185d5d1a1bdc9a5e995960921b6044820152606401610905565b600083815260086020908152604091829020600501805460ff1916851515908117909155915191825284917f5566468eb6e95f5ef7f410712ea387e46454f45afb12b8c36d4feb08fa43971f91015b60405180910390a2505050565b600080821180156117a057506004548211155b80156108d157505060009081526007602052604090206003015460ff1690565b60015b6004548111610efa576000818152602b602052604090205460ff161580156117fc575060008181526007602052604090206003015460ff165b1561185357604051631d4a1c2560e31b815260048101829052309063ea50e12890602401600060405180830381600087803b15801561183a57600080fd5b505af115801561184e573d6000803e3d6000fd5b505050505b8061185d81613b5d565b9150506117c3565b6118a06040518060c0016040528060008152602001600081526020016060815260200160008152602001600081526020016000151581525090565b600960008381526020019081526020016000206040518060c001604052908160008201548152602001600182015481526020016002820180546118e290613b76565b80601f016020809104026020016040519081016040528092919081815260200182805461190e90613b76565b801561195b5780601f106119305761010080835404028352916020019161195b565b820191906000526020600020905b81548152906001019060200180831161193e57829003601f168201915b5050509183525050600382015460208201526004820154604082015260059091015460ff16151560609091015292915050565b600860205260009081526040902080546001820154600283018054929391926119b690613b76565b80601f01602080910402602001604051908101604052809291908181526020018280546119e290613b76565b8015611a2f5780601f10611a0457610100808354040283529160200191611a2f565b820191906000526020600020905b815481529060010190602001808311611a1257829003601f168201915b505050505090806003018054611a4490613b76565b80601f0160208091040260200160405190810160405280929190818152602001828054611a7090613b76565b8015611abd5780601f10611a9257610100808354040283529160200191611abd565b820191906000526020600020905b815481529060010190602001808311611aa057829003601f168201915b505050505090806004018054611ad290613b76565b80601f0160208091040260200160405190810160405280929190818152602001828054611afe90613b76565b8015611b4b5780601f10611b2057610100808354040283529160200191611b4b565b820191906000526020600020905b815481529060010190602001808311611b2e57829003601f168201915b505050506005830154600690930154919260ff1691905087565b600080516020613f68833981519152611b7d81612db8565b610efa61304c565b60096020526000908152604090208054600182015460028301805492939192611bad90613b76565b80601f0160208091040260200160405190810160405280929190818152602001828054611bd990613b76565b8015611c265780601f10611bfb57610100808354040283529160200191611c26565b820191906000526020600020905b815481529060010190602001808311611c0957829003601f168201915b50505050600383015460048401546005909401549293909290915060ff1686565b600080516020613f28833981519152611c5f81612db8565b600084118015611c7157506005548411155b611cae5760405162461bcd60e51b815260206004820152600e60248201526d092dcecc2d8d2c840c4e4c2dcc6d60931b6044820152606401610905565b600083118015611cc057506006548311155b611d045760405162461bcd60e51b8152602060048201526015602482015274496e76616c69642063796c696e646572207479706560581b6044820152606401610905565b6000821315611d41576000848152600b6020908152604080832086845290915281208054849290611d36908490613d46565b90915550611dea9050565b6000821215611dea576000611d5583613d8b565b6000868152600b60209081526040808320888452909152902054909150811115611dba5760405162461bcd60e51b8152602060048201526016602482015275496e73756666696369656e7420696e76656e746f727960501b6044820152606401610905565b6000858152600b6020908152604080832087845290915281208054839290611de3908490613d1c565b9091555050505b6000848152600b60209081526040808320868452825291829020549151918252849186917f4dffc6eb66f0a07602619896868c2fa96801481a286d2507a3be65c144b596279101610ba0565b611e3e613443565b604080516103c08101909152600d601e6000835b82821015611ef5578382018054611e6890613b76565b80601f0160208091040260200160405190810160405280929190818152602001828054611e9490613b76565b8015611ee15780601f10611eb657610100808354040283529160200191611ee1565b820191906000526020600020905b815481529060010190602001808311611ec457829003601f168201915b505050505081526020019060010190611e52565b50505050905090565b6000918252602082815260408084206001600160a01b0393909316845291905290205460ff1690565b60008082118015611f3a57506005548211155b80156108d157505060009081526008602052604090206005015460ff1690565b611f9c6040518060e001604052806000815260200160008152602001606081526020016060815260200160608152602001600015158152602001600081525090565b600860008381526020019081526020016000206040518060e00160405290816000820154815260200160018201548152602001600282018054611fde90613b76565b80601f016020809104026020016040519081016040528092919081815260200182805461200a90613b76565b80156120575780601f1061202c57610100808354040283529160200191612057565b820191906000526020600020905b81548152906001019060200180831161203a57829003601f168201915b5050505050815260200160038201805461207090613b76565b80601f016020809104026020016040519081016040528092919081815260200182805461209c90613b76565b80156120e95780601f106120be576101008083540402835291602001916120e9565b820191906000526020600020905b8154815290600101906020018083116120cc57829003601f168201915b5050505050815260200160048201805461210290613b76565b80601f016020809104026020016040519081016040528092919081815260200182805461212e90613b76565b801561217b5780601f106121505761010080835404028352916020019161217b565b820191906000526020600020905b81548152906001019060200180831161215e57829003601f168201915b5050509183525050600582015460ff161515602082015260069091015460409091015292915050565b6060600060015b600654811161220a57600081815260096020526040902060010154841480156121e5575060008181526009602052604090206005015460ff165b156121f857816121f481613b5d565b9250505b8061220281613b5d565b9150506121ab565b5060008167ffffffffffffffff81111561222657612226613507565b60405190808252806020026020018201604052801561224f578160200160208202803683370190505b509050600060015b60065481116122d45760008181526009602052604090206001015486148015612291575060008181526009602052604090206005015460ff165b156122c257808383815181106122a9576122a9613d59565b6020908102919091010152816122be81613b5d565b9250505b806122cc81613b5d565b915050612257565b5090949350505050565b600080516020613f688339815191526122f681612db8565b6001600160a01b03831661233e5760405162461bcd60e51b815260206004820152600f60248201526e496e76616c6964206164647265737360881b6044820152606401610905565b600082116123835760405162461bcd60e51b8152602060048201526012602482015271125b9d985b1a590818dbdb5c185b9e48125160721b6044820152606401610905565b61239b600080516020613f4883398151915284612dc2565b506001600160a01b03831660008181526002602052604080822085905551909184917f90d48eec78a21ecf21a2bc62a8b3a3803f0c40cc6b662df5e7506989fe4af86f908490a4505050565b6000818152600c6020908152604080832080548251818502810185019093528083526060949383018282801561243c57602002820191906000526020600020905b815481526020019060010190808311612428575b505050505090506000805b82518110156124ac576008600084838151811061246657612466613d59565b60209081029190910181015182528101919091526040016000206005015460ff161561249a578161249681613b5d565b9250505b806124a481613b5d565b915050612447565b5060008167ffffffffffffffff8111156124c8576124c8613507565b6040519080825280602002602001820160405280156124f1578160200160208202803683370190505b5090506000805b8451811015612594576008600086838151811061251757612517613d59565b60209081029190910181015182528101919091526040016000206005015460ff16156125825784818151811061254f5761254f613d59565b602002602001015183838151811061256957612569613d59565b60209081029190910101528161257e81613b5d565b9250505b8061258c81613b5d565b9150506124f8565b509095945050505050565b600080831180156125b257506004548311155b6125ce5760405162461bcd60e51b815260040161090590613b1e565b601e82106125ee5760405162461bcd60e51b815260040161090590613cec565b6000826125fc600186613d1c565b61260790601e613d2f565b6126119190613d46565b61261c906001613d46565b905060055481111561145d5760405162461bcd60e51b815260206004820152601060248201526f109c985b98da081b9bdd08199bdd5b9960821b6044820152606401610905565b6001600160a01b038116600090815260026020526040902054612694600080516020613f6883398151915233611efe565b806126cc57506126b2600080516020613f4883398151915233611efe565b80156126cc57503360009081526002602052604090205481145b6127185760405162461bcd60e51b815260206004820152601e60248201527f4e6f7420617574686f72697a656420746f2072656d6f766520737461666600006044820152606401610905565b612730600080516020613f2883398151915283612e54565b50612749600080516020613f4883398151915283612e54565b506001600160a01b03821660008181526002602090815260408083208390556003909152808220829055517fbe0c9c04c8b745ee47e5f1102a51b7adffc957970fe9242ff6c0793adc748b1e9190a25050565b6000828152602081905260409020600101546127b781612db8565b610e9c8383612e54565b6060601e82106127e35760405162461bcd60e51b815260040161090590613cec565b600d82601e81106127f6576127f6613d59565b01805461280290613b76565b80601f016020809104026020016040519081016040528092919081815260200182805461282e90613b76565b8015610e3a5780601f1061285057610100808354040283529160200191610e3a565b820191906000526020600020905b81548152906001019060200180831161285e5750939695505050505050565b6060600060015b60045481116128c75760008181526007602052604090206003015460ff16156128b557816128b181613b5d565b9250505b806128bf81613b5d565b915050612884565b5060008167ffffffffffffffff8111156128e3576128e3613507565b60405190808252806020026020018201604052801561290c578160200160208202803683370190505b509050600060015b60045481116129755760008181526007602052604090206003015460ff1615612963578083838151811061294a5761294a613d59565b60209081029190910101528161295f81613b5d565b9250505b8061296d81613b5d565b915050612914565b50909392505050565b6001600160a01b0382166000908152600360205260408120548214801561145d575061145d600080516020613f2883398151915284611efe565b6000811180156129ca57506004548111155b6129e65760405162461bcd60e51b815260040161090590613b1e565b6000818152602b602052604090205460ff1615612a455760405162461bcd60e51b815260206004820152601c60248201527f4272616e6368657320616c726561647920696e697469616c697a6564000000006044820152606401610905565b60008181526007602052604090206003015460ff16612a9b5760405162461bcd60e51b8152602060048201526012602482015271436f6d70616e79206e6f742061637469766560701b6044820152606401610905565b60008181526007602052604081206001018054612ab790613b76565b80601f0160208091040260200160405190810160405280929190818152602001828054612ae390613b76565b8015612b305780601f10612b0557610100808354040283529160200191612b30565b820191906000526020600020905b815481529060010190602001808311612b1357829003601f168201915b5050505050905060005b601e811015612d9b5760058054906000612b5383613b5d565b9190505550600082600d83601e8110612b6e57612b6e613d59565b01604051602001612b80929190613e1a565b60408051601f1981840301815260e083018252600554835260208301879052908201819052915060608101600d84601e8110612bbe57612bbe613d59565b018054612bca90613b76565b80601f0160208091040260200160405190810160405280929190818152602001828054612bf690613b76565b8015612c435780601f10612c1857610100808354040283529160200191612c43565b820191906000526020600020905b815481529060010190602001808311612c2657829003601f168201915b50505050508152602001600d84601e8110612c6057612c60613d59565b01604051602001612c719190613e5f565b60408051601f198184030181529181529082526001602083810182905242938301939093526005546000908152600884528290208451815592840151908301558201516002820190612cc39082613bfe565b5060608201516003820190612cd89082613bfe565b5060808201516004820190612ced9082613bfe565b5060a08201516005828101805460ff19169215159290921790915560c0909201516006909101556000858152600c6020908152604082208354815460018101835591845291909220909101555484907f659ed3834b4ed7a42eb3b768d7174a2188abd5bbe5351e3f66394d2d9d53486c83600d86601e8110612d7157612d71613d59565b01604051612d80929190613e8c565b60405180910390a35080612d9381613b5d565b915050612b3a565b50506000908152602b60205260409020805460ff19166001179055565b610efa8133613087565b6000612dce8383611efe565b612e4c576000838152602081815260408083206001600160a01b03861684529091529020805460ff19166001179055612e043390565b6001600160a01b0316826001600160a01b0316847f2f8788117e7eff1d82e926ec794901d17c78024a50270940304540a733656f0d60405160405180910390a45060016108d1565b5060006108d1565b6000612e608383611efe565b15612e4c576000838152602081815260408083206001600160a01b0386168085529252808320805460ff1916905551339286917ff6391f5c32d9c69d2a47ea670b442974b53935d1edc7fd64eb21e047a839171b9190a45060016108d1565b612ec76130c4565b6001805460ff191690557f5db9ee0a495bf2e6ff9c91a7834c1ba4fdd244a5e8aa4e537bd38aeae4b073aa335b6040516001600160a01b03909116815260200160405180910390a1565b60048054906000612f2183613b5d565b90915550506040805160c08101825260045480825260208083018781528385018790526001606085018190526001600160a01b03871660808601524260a0860152600093845260079092529390912082518155925191929190820190612f879082613bfe565b5060408201516002820190612f9c9082613bfe565b50606082015160038201805460808501516001600160a01b031661010002610100600160a81b0319931515939093166001600160a81b03199091161791909117905560a09091015160049182015554604051600a90612ffc908590613d6f565b90815260405190819003602001902055600454613018906130e9565b6004547f04b0ebf9776978e9387b417ee64c526bdd0e794fbb10b0f74971d6f0e59e2d2e8484604051611780929190613cbe565b6130546133de565b6001805460ff1916811790557f62e78cea01bee320cd4e420270b5ea74000d11b0c9f74754ebdbfc544b05a25833612ef4565b6130918282611efe565b6130c05760405163e2517d3f60e01b81526001600160a01b038216600482015260248101839052604401610905565b5050565b60015460ff166130e757604051638dfc202b60e01b815260040160405180910390fd5b565b600680549060006130f983613b5d565b90915550506040805160c081018252600680548083526020808401868152855180870187526007815266366b67204c504760c81b818401528587019081526060860194909452600060808601819052600160a087018190529381526009909252949020835181559351908401555190919060028201906131799082613bfe565b50606082015160038201556080820151600482015560a0909101516005909101805460ff19169115159190911790556006805460405191825282917fe3d9c1137cfadff2d3aabff121b2ea79d78d35bf96e5404e2cb047d39b3fdb329060200160405180910390a3600680549060006131f183613b5d565b90915550506040805160c081018252600654808252602080830185815284518086018652600881526731326b67204c504760c01b81840152848601908152600c6060860152600060808601819052600160a0870181905294815260099093529490912083518155905191810191909155915190919060028201906132759082613bfe565b50606082015160038201556080820151600482015560a0909101516005909101805460ff1916911515919091179055600654604051600c81528291907fe3d9c1137cfadff2d3aabff121b2ea79d78d35bf96e5404e2cb047d39b3fdb329060200160405180910390a3600680549060006132ee83613b5d565b90915550506040805160c081018252600654808252602080830185815284518086018652600881526731356b67204c504760c01b81840152848601908152600f6060860152600060808601819052600160a0870181905294815260099093529490912083518155905191810191909155915190919060028201906133729082613bfe565b50606082015160038201556080820151600482015560a0909101516005909101805460ff1916911515919091179055600654604051600f81528291907fe3d9c1137cfadff2d3aabff121b2ea79d78d35bf96e5404e2cb047d39b3fdb329060200160405180910390a350565b60015460ff16156130e75760405163d93c066560e01b815260040160405180910390fd5b6040518060c0016040528060008152602001606081526020016060815260200160001515815260200160006001600160a01b03168152602001600081525090565b604051806103c00160405280601e905b60608152602001906001900390816134535790505090565b60006020828403121561347d57600080fd5b81356001600160e01b03198116811461145d57600080fd5b600080604083850312156134a857600080fd5b50508035926020909101359150565b6000602082840312156134c957600080fd5b5035919050565b80356001600160a01b03811681146134e757600080fd5b919050565b6000602082840312156134fe57600080fd5b61145d826134d0565b634e487b7160e01b600052604160045260246000fd5b600082601f83011261352e57600080fd5b813567ffffffffffffffff8082111561354957613549613507565b604051601f8301601f19908116603f0116810190828211818310171561357157613571613507565b8160405283815286602085880101111561358a57600080fd5b836020870160208301376000602085830101528094505050505092915050565b600080600080608085870312156135c057600080fd5b84359350602085013567ffffffffffffffff808211156135df57600080fd5b6135eb8883890161351d565b9450604087013591508082111561360157600080fd5b61360d8883890161351d565b9350606087013591508082111561362357600080fd5b506136308782880161351d565b91505092959194509250565b6020808252825182820181905260009190848201906040850190845b8181101561367457835183529284019291840191600101613658565b50909695505050505050565b60005b8381101561369b578181015183820152602001613683565b50506000910152565b600081518084526136bc816020860160208601613680565b601f01601f19169290920160200192915050565b86815260c0602082015260006136e960c08301886136a4565b82810360408401526136fb81886136a4565b951515606084015250506001600160a01b0392909216608083015260a0909101529392505050565b6000806040838503121561373657600080fd5b82359150613746602084016134d0565b90509250929050565b60006020828403121561376157600080fd5b813567ffffffffffffffff81111561377857600080fd5b6137848482850161351d565b949350505050565b60208152815160208201526000602083015160c060408401526137b260e08401826136a4565b90506040840151601f198483030160608501526137cf82826136a4565b91505060608401511515608084015260018060a01b0360808501511660a084015260a084015160c08401528091505092915050565b60008060006060848603121561381957600080fd5b833567ffffffffffffffff8082111561383157600080fd5b61383d8783880161351d565b9450602086013591508082111561385357600080fd5b506138608682870161351d565b92505061386f604085016134d0565b90509250925092565b6000806040838503121561388b57600080fd5b613894836134d0565b946020939093013593505050565b6000806000606084860312156138b757600080fd5b6138c0846134d0565b95602085013595506040909401359392505050565b600080604083850312156138e857600080fd5b82359150602083013580151581146138ff57600080fd5b809150509250929050565b6020815281516020820152602082015160408201526000604083015160c0606084015261393a60e08401826136a4565b905060608401516080840152608084015160a084015260a0840151151560c08401528091505092915050565b87815286602082015260e06040820152600061398560e08301886136a4565b828103606084015261399781886136a4565b905082810360808401526139ab81876136a4565b94151560a0840152505060c0015295945050505050565b86815285602082015260c0604082015260006139e160c08301876136a4565b6060830195909552506080810192909252151560a0909101529392505050565b600080600060608486031215613a1657600080fd5b505081359360208301359350604090920135919050565b60208082526000906103e0830183820185845b601e811015613a6f57601f19878503018352613a5d8483516136a4565b93509184019190840190600101613a40565b50919695505050505050565b6020815281516020820152602082015160408201526000604083015160e06060840152613aac6101008401826136a4565b90506060840151601f1980858403016080860152613aca83836136a4565b925060808601519150808584030160a086015250613ae882826136a4565b91505060a0840151151560c084015260c084015160e08401528091505092915050565b60208152600061145d60208301846136a4565b6020808252600f908201526e496e76616c696420636f6d70616e7960881b604082015260600190565b634e487b7160e01b600052601160045260246000fd5b600060018201613b6f57613b6f613b47565b5060010190565b600181811c90821680613b8a57607f821691505b602082108103613baa57634e487b7160e01b600052602260045260246000fd5b50919050565b601f821115610ed557600081815260208120601f850160051c81016020861015613bd75750805b601f850160051c820191505b81811015613bf657828155600101613be3565b505050505050565b815167ffffffffffffffff811115613c1857613c18613507565b613c2c81613c268454613b76565b84613bb0565b602080601f831160018114613c615760008415613c495750858301515b600019600386901b1c1916600185901b178555613bf6565b600085815260208120601f198616915b82811015613c9057888601518255948401946001909101908401613c71565b5085821015613cae5787850151600019600388901b60f8161c191681555b5050505050600190811b01905550565b604081526000613cd160408301856136a4565b8281036020840152613ce381856136a4565b95945050505050565b602080825260169082015275092dcecc2d8d2c840c8d2e6e8e4d2c6e840d2dcc8caf60531b604082015260600190565b818103818111156108d1576108d1613b47565b80820281158282048414176108d1576108d1613b47565b808201808211156108d1576108d1613b47565b634e487b7160e01b600052603260045260246000fd5b60008251613d81818460208701613680565b9190910192915050565b6000600160ff1b8201613da057613da0613b47565b5060000390565b60008154613db481613b76565b60018281168015613dcc5760018114613de157613e10565b60ff1984168752821515830287019450613e10565b8560005260208060002060005b85811015613e075781548a820152908401908201613dee565b50505082870194505b5050505092915050565b60008351613e2c818460208801613680565b6201016960ed1b908301908152613e466003820185613da7565b6604084e4c2dcc6d60cb1b815260070195945050505050565b6000613e6b8284613da7565b702044697374726963742c205277616e646160781b81526011019392505050565b604081526000613e9f60408301856136a4565b60208382038185015260008554613eb581613b76565b80855260018281168015613ed05760018114613eea57613f18565b60ff1984168787015282151560051b870186019450613f18565b896000528560002060005b84811015613f10578154898201890152908301908701613ef5565b880187019550505b5092999850505050505050505056fe45f38dbdf8e6d346f59dbe508e964d6aad44a9632bbdf1d41126e061be7824284c5ca41c2cc71805cf781b20e21f68a1c1f7d2f44a1193a84519d6dcf00861165246556c0ab216b5b325ad7c539bfbd1a07c768773cdf810fecd3c3375c27407a264697066735822122075a3177fc7a11dc9cb8a557119e14bf1d82b34fbda0d3eb2fb485ccacd4f59df64736f6c63430008140033e3d9c1137cfadff2d3aabff121b2ea79d78d35bf96e5404e2cb047d39b3fdb32",
  "linkReferences": {},
  "deployedLinkReferences": {}
}