{
  "_format": "hh-sol-artifact-1",
  "contractName": "GasSwapAccessControl",
  "sourceName": "contracts/GasSwapAccessControl.sol",
  "abi": [
    {
      "inputs": [],
      "stateMutability": "nonpayable",
      "type": "constructor"
    },
    {
      "inputs": [],
      "name": "AccessControlBadConfirmation",
      "type": "error"
    },
    {
      "inputs": [
        {
          "internalType": "address",
          "name": "account",
          "type": "address"
        },
        {
          "internalType": "bytes32",
          "name": "neededRole",
          "type": "bytes32"
        }
      ],
      "name": "AccessControlUnauthorizedAccount",
      "type": "error"
    },
    {
      "inputs": [],
      "name": "EnforcedPause",
      "type": "error"
    },
    {
      "inputs": [],
      "name": "ExpectedPause",
      "type": "error"
    },
    {
      "anonymous": false,
      "inputs": [
        {
          "indexed": false,
          "internalType": "address",
          "name": "account",
          "type": "address"
        }
      ],
      "name": "Paused",
      "type": "event"
    },
    {
      "anonymous": false,
      "inputs": [
        {
          "indexed": true,
          "internalType": "bytes32",
          "name": "role",
          "type": "bytes32"
        },
        {
          "indexed": true,
          "internalType": "bytes32",
          "name": "previousAdminRole",
          "type": "bytes32"
        },
        {
          "indexed": true,
          "internalType": "bytes32",
          "name": "newAdminRole",
          "type": "bytes32"
        }
      ],
      "name": "RoleAdminChanged",
      "type": "event"
    },
    {
      "anonymous": false,
      "inputs": [
        {
          "indexed": true,
          "internalType": "bytes32",
          "name": "role",
          "type": "bytes32"
        },
        {
          "indexed": true,
          "internalType": "address",
          "name": "account",
          "type": "address"
        },
        {
          "indexed": true,
          "internalType": "address",
          "name": "sender",
          "type": "address"
        }
      ],
      "name": "RoleGranted",
      "type": "event"
    },
    {
      "anonymous": false,
      "inputs": [
        {
          "indexed": true,
          "internalType": "bytes32",
          "name": "role",
          "type": "bytes32"
        },
        {
          "indexed": true,
          "internalType": "address",
          "name": "account",
          "type": "address"
        },
        {
          "indexed": true,
          "internalType": "address",
          "name": "sender",
          "type": "address"
        }
      ],
      "name": "RoleRevoked",
      "type": "event"
    },
    {
      "anonymous": false,
      "inputs": [
        {
          "indexed": true,
          "internalType": "address",
          "name": "staff",
          "type": "address"
        },
        {
          "indexed": true,
          "internalType": "uint256",
          "name": "companyId",
          "type": "uint256"
        },
        {
          "indexed": true,
          "internalType": "uint256",
          "name": "branchId",
          "type": "uint256"
        }
      ],
      "name": "StaffAssigned",
      "type": "event"
    },
    {
      "anonymous": false,
      "inputs": [
        {
          "indexed": true,
          "internalType": "address",
          "name": "staff",
          "type": "address"
        }
      ],
      "name": "StaffRemoved",
      "type": "event"
    },
    {
      "anonymous": false,
      "inputs": [
        {
          "indexed": false,
          "internalType": "address",
          "name": "account",
          "type": "address"
        }
      ],
      "name": "Unpaused",
      "type": "event"
    },
    {
      "inputs": [],
      "name": "BRANCH_STAFF_ROLE",
      "outputs": [
        {
          "internalType": "bytes32",
          "name": "",
          "type": "bytes32"
        }
      ],
      "stateMutability": "view",
      "type": "function"
    },
    {
      "inputs": [],
      "name": "COMPANY_ADMIN_ROLE",
      "outputs": [
        {
          "internalType": "bytes32",
          "name": "",
          "type": "bytes32"
        }
      ],
      "stateMutability": "view",
      "type": "function"
    },
    {
      "inputs": [],
      "name": "DEFAULT_ADMIN_ROLE",
      "outputs": [
        {
          "internalType": "bytes32",
          "name": "",
          "type": "bytes32"
        }
      ],
      "stateMutability": "view",
      "type": "function"
    },
    {
      "inputs": [],
      "name": "PLATFORM_ADMIN_ROLE",
      "outputs": [
        {
          "internalType": "bytes32",
          "name": "",
          "type": "bytes32"
        }
      ],
      "stateMutability": "view",
      "type": "function"
    },
    {
      "inputs": [
        {
          "internalType": "address",
          "name": "staff",
          "type": "address"
        },
        {
          "internalType": "uint256",
          "name": "companyId",
          "type": "uint256"
        },
        {
          "internalType": "uint256",
          "name": "branchId",
          "type": "uint256"
        }
      ],
      "name": "assignBranchStaff",
      "outputs": [],
      "stateMutability": "nonpayable",
      "type": "function"
    },
    {
      "inputs": [
        {
          "internalType": "address",
          "name": "admin",
          "type": "address"
        },
        {
          "internalType": "uint256",
          "name": "companyId",
          "type": "uint256"
        }
      ],
      "name": "assignCompanyAdmin",
      "outputs": [],
      "stateMutability": "nonpayable",
      "type": "function"
    },
    {
      "inputs": [
        {
          "internalType": "bytes32",
          "name": "role",
          "type": "bytes32"
        }
      ],
      "name": "getRoleAdmin",
      "outputs": [
        {
          "internalType": "bytes32",
          "name": "",
          "type": "bytes32"
        }
      ],
      "stateMutability": "view",
      "type": "function"
    },
    {
      "inputs": [
        {
          "internalType": "address",
          "name": "staff",
          "type": "address"
        }
      ],
      "name": "getStaffBranch",
      "outputs": [
        {
          "internalType": "uint256",
          "name": "",
          "type": "uint256"
        }
      ],
      "stateMutability": "view",
      "type": "function"
    },
    {
      "inputs": [
        {
          "internalType": "address",
          "name": "staff",
          "type": "address"
        }
      ],
      "name": "getStaffCompany",
      "outputs": [
        {
          "internalType": "uint256",
          "name": "",
          "type": "uint256"
        }
      ],
      "stateMutability": "view",
      "type": "function"
    },
    {
      "inputs": [
        {
          "internalType": "bytes32",
          "name": "role",
          "type": "bytes32"
        },
        {
          "internalType": "address",
          "name": "account",
          "type": "address"
        }
      ],
      "name": "grantRole",
      "outputs": [],
      "stateMutability": "nonpayable",
      "type": "function"
    },
    {
      "inputs": [
        {
          "internalType": "bytes32",
          "name": "role",
          "type": "bytes32"
        },
        {
          "internalType": "address",
          "name": "account",
          "type": "address"
        }
      ],
      "name": "hasRole",
      "outputs": [
        {
          "internalType": "bool",
          "name": "",
          "type": "bool"
        }
      ],
      "stateMutability": "view",
      "type": "function"
    },
    {
      "inputs": [
        {
          "internalType": "address",
          "name": "staff",
          "type": "address"
        },
        {
          "internalType": "uint256",
          "name": "branchId",
          "type": "uint256"
        }
      ],
      "name": "isBranchStaff",
      "outputs": [
        {
          "internalType": "bool",
          "name": "",
          "type": "bool"
        }
      ],
      "stateMutability": "view",
      "type": "function"
    },
    {
      "inputs": [
        {
          "internalType": "address",
          "name": "staff",
          "type": "address"
        },
        {
          "internalType": "uint256",
          "name": "companyId",
          "type": "uint256"
        }
      ],
      "name": "isCompanyStaff",
      "outputs": [
        {
          "internalType": "bool",
          "name": "",
          "type": "bool"
        }
      ],
      "stateMutability": "view",
      "type": "function"
    },
    {
      "inputs": [],
      "name": "pause",
      "outputs": [],
      "stateMutability": "nonpayable",
      "type": "function"
    },
    {
      "inputs": [],
      "name": "paused",
      "outputs": [
        {
          "internalType": "bool",
          "name": "",
          "type": "bool"
        }
      ],
      "stateMutability": "view",
      "type": "function"
    },
    {
      "inputs": [
        {
          "internalType": "address",
          "name": "staff",
          "type": "address"
        }
      ],
      "name": "removeStaff",
      "outputs": [],
      "stateMutability": "nonpayable",
      "type": "function"
    },
    {
      "inputs": [
        {
          "internalType": "bytes32",
          "name": "role",
          "type": "bytes32"
        },
        {
          "internalType": "address",
          "name": "callerConfirmation",
          "type": "address"
        }
      ],
      "name": "renounceRole",
      "outputs": [],
      "stateMutability": "nonpayable",
      "type": "function"
    },
    {
      "inputs": [
        {
          "internalType": "bytes32",
          "name": "role",
          "type": "bytes32"
        },
        {
          "internalType": "address",
          "name": "account",
          "type": "address"
        }
      ],
      "name": "revokeRole",
      "outputs": [],
      "stateMutability": "nonpayable",
      "type": "function"
    },
    {
      "inputs": [
        {
          "internalType": "address",
          "name": "",
          "type": "address"
        }
      ],
      "name": "staffBranch",
      "outputs": [
        {
          "internalType": "uint256",
          "name": "",
          "type": "uint256"
        }
      ],
      "stateMutability": "view",
      "type": "function"
    },
    {
      "inputs": [
        {
          "internalType": "address",
          "name": "",
          "type": "address"
        }
      ],
      "name": "staffCompany",
      "outputs": [
        {
          "internalType": "uint256",
          "name": "",
          "type": "uint256"
        }
      ],
      "stateMutability": "view",
      "type": "function"
    },
    {
      "inputs": [
        {
          "internalType": "bytes4",
          "name": "interfaceId",
          "type": "bytes4"
        }
      ],
      "name": "supportsInterface",
      "outputs": [
        {
          "internalType": "bool",
          "name": "",
          "type": "bool"
        }
      ],
      "stateMutability": "view",
      "type": "function"
    },
    {
      "inputs": [],
      "name": "unpause",
      "outputs": [],
      "stateMutability": "nonpayable",
      "type": "function"
    }
  ],
  "bytecode": "0x608060405234801561001057600080fd5b5061001c60003361004d565b506100477f5246556c0ab216b5b325ad7c539bfbd1a07c768773cdf810fecd3c3375c274073361004d565b506100f9565b6000828152602081815260408083206001600160a01b038516845290915281205460ff166100ef576000838152602081815260408083206001600160a01b03861684529091529020805460ff191660011790556100a73390565b6001600160a01b0316826001600160a01b0316847f2f8788117e7eff1d82e926ec794901d17c78024a50270940304540a733656f0d60405160405180910390a45060016100f3565b5060005b92915050565b610cde806101086000396000f3fe608060405234801561001057600080fd5b50600436106101425760003560e01c80638456cb59116100b8578063ab445c491161007c578063ab445c49146102be578063c4522c92146102d3578063c96ea900146102e6578063d547741f146102fb578063def10b531461030e578063fa2674741461032157600080fd5b80638456cb591461025f57806391d14854146102675780639eda108e1461027a578063a217fddf146102a3578063a871c83d146102ab57600080fd5b806336568abe1161010a57806336568abe146101fe5780633f4ba83a146102115780635c975abb14610219578063608a9b481461022457806366e2b28114610237578063685d34ff1461024a57600080fd5b806301ffc9a7146101475780631b28362a1461016f578063248a9ca3146101a65780632a324818146101c95780632f2ff15d146101e9575b600080fd5b61015a610155366004610b45565b610341565b60405190151581526020015b60405180910390f35b61019861017d366004610b8b565b6001600160a01b031660009081526003602052604090205490565b604051908152602001610166565b6101986101b4366004610ba6565b60009081526020819052604090206001015490565b6101986101d7366004610b8b565b60026020526000908152604090205481565b6101fc6101f7366004610bbf565b610378565b005b6101fc61020c366004610bbf565b6103a3565b6101fc6103db565b60015460ff1661015a565b61015a610232366004610beb565b6103fe565b6101fc610245366004610c15565b61045d565b610198600080516020610c8983398151915281565b6101fc610641565b61015a610275366004610bbf565b610661565b610198610288366004610b8b565b6001600160a01b031660009081526002602052604090205490565b610198600081565b6101fc6102b9366004610beb565b61068a565b610198600080516020610c4983398151915281565b6101fc6102e1366004610b8b565b610793565b610198600080516020610c6983398151915281565b6101fc610309366004610bbf565b6108cc565b61015a61031c366004610beb565b6108f1565b61019861032f366004610b8b565b60036020526000908152604090205481565b60006001600160e01b03198216637965db0b60e01b148061037257506301ffc9a760e01b6001600160e01b03198316145b92915050565b6000828152602081905260409020600101546103938161092b565b61039d8383610935565b50505050565b6001600160a01b03811633146103cc5760405163334bd91960e11b815260040160405180910390fd5b6103d682826109c7565b505050565b600080516020610c898339815191526103f38161092b565b6103fb610a32565b50565b6001600160a01b038216600090815260026020526040812054821480156104565750610438600080516020610c4983398151915284610661565b806104565750610456600080516020610c6983398151915284610661565b9392505050565b6001600160a01b0383166104aa5760405162461bcd60e51b815260206004820152600f60248201526e496e76616c6964206164647265737360881b60448201526064015b60405180910390fd5b600082116104ef5760405162461bcd60e51b8152602060048201526012602482015271125b9d985b1a590818dbdb5c185b9e48125160721b60448201526064016104a1565b600081116105335760405162461bcd60e51b8152602060048201526011602482015270125b9d985b1a5908189c985b98da081251607a1b60448201526064016104a1565b61054b600080516020610c8983398151915233610661565b806105835750610569600080516020610c6983398151915233610661565b801561058357503360009081526002602052604090205482145b6105cf5760405162461bcd60e51b815260206004820152601e60248201527f4e6f7420617574686f72697a656420746f2061737369676e207374616666000060448201526064016104a1565b6105e7600080516020610c4983398151915284610935565b506001600160a01b03831660008181526002602090815260408083208690556003909152808220849055518392859290917f90d48eec78a21ecf21a2bc62a8b3a3803f0c40cc6b662df5e7506989fe4af86f9190a4505050565b600080516020610c898339815191526106598161092b565b6103fb610a84565b6000918252602082815260408084206001600160a01b0393909316845291905290205460ff1690565b600080516020610c898339815191526106a28161092b565b6001600160a01b0383166106ea5760405162461bcd60e51b815260206004820152600f60248201526e496e76616c6964206164647265737360881b60448201526064016104a1565b6000821161072f5760405162461bcd60e51b8152602060048201526012602482015271125b9d985b1a590818dbdb5c185b9e48125160721b60448201526064016104a1565b610747600080516020610c6983398151915284610935565b506001600160a01b03831660008181526002602052604080822085905551909184917f90d48eec78a21ecf21a2bc62a8b3a3803f0c40cc6b662df5e7506989fe4af86f908490a4505050565b6001600160a01b0381166000908152600260205260409020546107c4600080516020610c8983398151915233610661565b806107fc57506107e2600080516020610c6983398151915233610661565b80156107fc57503360009081526002602052604090205481145b6108485760405162461bcd60e51b815260206004820152601e60248201527f4e6f7420617574686f72697a656420746f2072656d6f7665207374616666000060448201526064016104a1565b610860600080516020610c49833981519152836109c7565b50610879600080516020610c69833981519152836109c7565b506001600160a01b03821660008181526002602090815260408083208390556003909152808220829055517fbe0c9c04c8b745ee47e5f1102a51b7adffc957970fe9242ff6c0793adc748b1e9190a25050565b6000828152602081905260409020600101546108e78161092b565b61039d83836109c7565b6001600160a01b038216600090815260036020526040812054821480156104565750610456600080516020610c4983398151915284610661565b6103fb8133610abf565b60006109418383610661565b6109bf576000838152602081815260408083206001600160a01b03861684529091529020805460ff191660011790556109773390565b6001600160a01b0316826001600160a01b0316847f2f8788117e7eff1d82e926ec794901d17c78024a50270940304540a733656f0d60405160405180910390a4506001610372565b506000610372565b60006109d38383610661565b156109bf576000838152602081815260408083206001600160a01b0386168085529252808320805460ff1916905551339286917ff6391f5c32d9c69d2a47ea670b442974b53935d1edc7fd64eb21e047a839171b9190a4506001610372565b610a3a610afc565b6001805460ff191690557f5db9ee0a495bf2e6ff9c91a7834c1ba4fdd244a5e8aa4e537bd38aeae4b073aa335b6040516001600160a01b03909116815260200160405180910390a1565b610a8c610b21565b6001805460ff1916811790557f62e78cea01bee320cd4e420270b5ea74000d11b0c9f74754ebdbfc544b05a25833610a67565b610ac98282610661565b610af85760405163e2517d3f60e01b81526001600160a01b0382166004820152602481018390526044016104a1565b5050565b60015460ff16610b1f57604051638dfc202b60e01b815260040160405180910390fd5b565b60015460ff1615610b1f5760405163d93c066560e01b815260040160405180910390fd5b600060208284031215610b5757600080fd5b81356001600160e01b03198116811461045657600080fd5b80356001600160a01b0381168114610b8657600080fd5b919050565b600060208284031215610b9d57600080fd5b61045682610b6f565b600060208284031215610bb857600080fd5b5035919050565b60008060408385031215610bd257600080fd5b82359150610be260208401610b6f565b90509250929050565b60008060408385031215610bfe57600080fd5b610c0783610b6f565b946020939093013593505050565b600080600060608486031215610c2a57600080fd5b610c3384610b6f565b9560208501359550604090940135939250505056fe45f38dbdf8e6d346f59dbe508e964d6aad44a9632bbdf1d41126e061be7824284c5ca41c2cc71805cf781b20e21f68a1c1f7d2f44a1193a84519d6dcf00861165246556c0ab216b5b325ad7c539bfbd1a07c768773cdf810fecd3c3375c27407a26469706673582212203bed32000af6e05688bef2af1b35e9a75720a61380e2cb74207a6a1fc3ec602b64736f6c63430008140033",
  "linkReferences": {},
  "deployedLinkReferences": {}
}