{
  "_format": "hh-sol-artifact-1",
  "contractName": "GasSwapPlatform",
  "sourceName": "contracts/GasSwapPlatform.sol",
  "abi": [
    {
      "inputs": [
        {
          "internalType": "address",
          "name": "_companyManager",
          "type": "address"
        },
        {
          "internalType": "address",
          "name": "_cylinderRegistry",
          "type": "address"
        },
        {
          "internalType": "address",
          "name": "_voucherManager",
          "type": "address"
        }
      ],
      "stateMutability": "nonpayable",
      "type": "constructor"
    },
    {
      "inputs": [],
      "name": "AccessControlBadConfirmation",
      "type": "error"
    },
    {
      "inputs": [
        {
          "internalType": "address",
          "name": "account",
          "type": "address"
        },
        {
          "internalType": "bytes32",
          "name": "neededRole",
          "type": "bytes32"
        }
      ],
      "name": "AccessControlUnauthorizedAccount",
      "type": "error"
    },
    {
      "inputs": [],
      "name": "EnforcedPause",
      "type": "error"
    },
    {
      "inputs": [],
      "name": "ExpectedPause",
      "type": "error"
    },
    {
      "anonymous": false,
      "inputs": [
        {
          "indexed": false,
          "internalType": "address",
          "name": "account",
          "type": "address"
        }
      ],
      "name": "Paused",
      "type": "event"
    },
    {
      "anonymous": false,
      "inputs": [
        {
          "indexed": false,
          "internalType": "address",
          "name": "companyManager",
          "type": "address"
        },
        {
          "indexed": false,
          "internalType": "address",
          "name": "cylinderRegistry",
          "type": "address"
        },
        {
          "indexed": false,
          "internalType": "address",
          "name": "voucherManager",
          "type": "address"
        }
      ],
      "name": "PlatformInitialized",
      "type": "event"
    },
    {
      "anonymous": false,
      "inputs": [
        {
          "indexed": true,
          "internalType": "bytes32",
          "name": "role",
          "type": "bytes32"
        },
        {
          "indexed": true,
          "internalType": "bytes32",
          "name": "previousAdminRole",
          "type": "bytes32"
        },
        {
          "indexed": true,
          "internalType": "bytes32",
          "name": "newAdminRole",
          "type": "bytes32"
        }
      ],
      "name": "RoleAdminChanged",
      "type": "event"
    },
    {
      "anonymous": false,
      "inputs": [
        {
          "indexed": true,
          "internalType": "bytes32",
          "name": "role",
          "type": "bytes32"
        },
        {
          "indexed": true,
          "internalType": "address",
          "name": "account",
          "type": "address"
        },
        {
          "indexed": true,
          "internalType": "address",
          "name": "sender",
          "type": "address"
        }
      ],
      "name": "RoleGranted",
      "type": "event"
    },
    {
      "anonymous": false,
      "inputs": [
        {
          "indexed": true,
          "internalType": "bytes32",
          "name": "role",
          "type": "bytes32"
        },
        {
          "indexed": true,
          "internalType": "address",
          "name": "account",
          "type": "address"
        },
        {
          "indexed": true,
          "internalType": "address",
          "name": "sender",
          "type": "address"
        }
      ],
      "name": "RoleRevoked",
      "type": "event"
    },
    {
      "anonymous": false,
      "inputs": [
        {
          "indexed": true,
          "internalType": "address",
          "name": "staff",
          "type": "address"
        },
        {
          "indexed": true,
          "internalType": "uint256",
          "name": "companyId",
          "type": "uint256"
        },
        {
          "indexed": true,
          "internalType": "uint256",
          "name": "branchId",
          "type": "uint256"
        }
      ],
      "name": "StaffAssigned",
      "type": "event"
    },
    {
      "anonymous": false,
      "inputs": [
        {
          "indexed": true,
          "internalType": "address",
          "name": "staff",
          "type": "address"
        }
      ],
      "name": "StaffRemoved",
      "type": "event"
    },
    {
      "anonymous": false,
      "inputs": [
        {
          "indexed": true,
          "internalType": "uint256",
          "name": "voucherId",
          "type": "uint256"
        },
        {
          "indexed": true,
          "internalType": "address",
          "name": "customer",
          "type": "address"
        },
        {
          "indexed": false,
          "internalType": "uint256",
          "name": "sourceBranchId",
          "type": "uint256"
        },
        {
          "indexed": false,
          "internalType": "uint256",
          "name": "redemptionBranchId",
          "type": "uint256"
        }
      ],
      "name": "SwapCompleted",
      "type": "event"
    },
    {
      "anonymous": false,
      "inputs": [
        {
          "indexed": true,
          "internalType": "uint256",
          "name": "voucherId",
          "type": "uint256"
        },
        {
          "indexed": true,
          "internalType": "address",
          "name": "customer",
          "type": "address"
        },
        {
          "indexed": false,
          "internalType": "uint256",
          "name": "companyId",
          "type": "uint256"
        },
        {
          "indexed": false,
          "internalType": "uint256",
          "name": "cylinderTypeId",
          "type": "uint256"
        },
        {
          "indexed": false,
          "internalType": "uint256",
          "name": "sourceBranchId",
          "type": "uint256"
        }
      ],
      "name": "SwapInitiated",
      "type": "event"
    },
    {
      "anonymous": false,
      "inputs": [
        {
          "indexed": false,
          "internalType": "address",
          "name": "account",
          "type": "address"
        }
      ],
      "name": "Unpaused",
      "type": "event"
    },
    {
      "inputs": [],
      "name": "BRANCH_STAFF_ROLE",
      "outputs": [
        {
          "internalType": "bytes32",
          "name": "",
          "type": "bytes32"
        }
      ],
      "stateMutability": "view",
      "type": "function"
    },
    {
      "inputs": [],
      "name": "COMPANY_ADMIN_ROLE",
      "outputs": [
        {
          "internalType": "bytes32",
          "name": "",
          "type": "bytes32"
        }
      ],
      "stateMutability": "view",
      "type": "function"
    },
    {
      "inputs": [],
      "name": "DEFAULT_ADMIN_ROLE",
      "outputs": [
        {
          "internalType": "bytes32",
          "name": "",
          "type": "bytes32"
        }
      ],
      "stateMutability": "view",
      "type": "function"
    },
    {
      "inputs": [],
      "name": "PLATFORM_ADMIN_ROLE",
      "outputs": [
        {
          "internalType": "bytes32",
          "name": "",
          "type": "bytes32"
        }
      ],
      "stateMutability": "view",
      "type": "function"
    },
    {
      "inputs": [
        {
          "internalType": "address",
          "name": "staff",
          "type": "address"
        },
        {
          "internalType": "uint256",
          "name": "companyId",
          "type": "uint256"
        },
        {
          "internalType": "uint256",
          "name": "branchId",
          "type": "uint256"
        }
      ],
      "name": "assignBranchStaff",
      "outputs": [],
      "stateMutability": "nonpayable",
      "type": "function"
    },
    {
      "inputs": [
        {
          "internalType": "address",
          "name": "admin",
          "type": "address"
        },
        {
          "internalType": "uint256",
          "name": "companyId",
          "type": "uint256"
        }
      ],
      "name": "assignCompanyAdmin",
      "outputs": [],
      "stateMutability": "nonpayable",
      "type": "function"
    },
    {
      "inputs": [
        {
          "internalType": "uint256",
          "name": "branchId",
          "type": "uint256"
        },
        {
          "internalType": "uint256",
          "name": "cylinderTypeId",
          "type": "uint256"
        }
      ],
      "name": "checkAvailability",
      "outputs": [
        {
          "internalType": "uint256",
          "name": "available",
          "type": "uint256"
        }
      ],
      "stateMutability": "view",
      "type": "function"
    },
    {
      "inputs": [],
      "name": "companyManager",
      "outputs": [
        {
          "internalType": "contract CompanyManager",
          "name": "",
          "type": "address"
        }
      ],
      "stateMutability": "view",
      "type": "function"
    },
    {
      "inputs": [
        {
          "internalType": "uint256",
          "name": "voucherId",
          "type": "uint256"
        },
        {
          "internalType": "string",
          "name": "newCylinderSerialNumber",
          "type": "string"
        },
        {
          "internalType": "uint256",
          "name": "branchId",
          "type": "uint256"
        }
      ],
      "name": "completeSwap",
      "outputs": [],
      "stateMutability": "nonpayable",
      "type": "function"
    },
    {
      "inputs": [],
      "name": "cylinderRegistry",
      "outputs": [
        {
          "internalType": "contract CylinderRegistry",
          "name": "",
          "type": "address"
        }
      ],
      "stateMutability": "view",
      "type": "function"
    },
    {
      "inputs": [
        {
          "internalType": "uint256",
          "name": "companyId",
          "type": "uint256"
        }
      ],
      "name": "getCompanyInfo",
      "outputs": [
        {
          "internalType": "string",
          "name": "name",
          "type": "string"
        },
        {
          "internalType": "string",
          "name": "code",
          "type": "string"
        },
        {
          "internalType": "bool",
          "name": "isActive",
          "type": "bool"
        },
        {
          "internalType": "uint256",
          "name": "branchCount",
          "type": "uint256"
        },
        {
          "internalType": "uint256",
          "name": "totalDeposits",
          "type": "uint256"
        },
        {
          "internalType": "uint256",
          "name": "totalRedemptions",
          "type": "uint256"
        },
        {
          "internalType": "int256",
          "name": "netBalance",
          "type": "int256"
        }
      ],
      "stateMutability": "view",
      "type": "function"
    },
    {
      "inputs": [
        {
          "internalType": "address",
          "name": "customer",
          "type": "address"
        }
      ],
      "name": "getCustomerActiveVouchers",
      "outputs": [
        {
          "internalType": "uint256[]",
          "name": "activeVoucherIds",
          "type": "uint256[]"
        }
      ],
      "stateMutability": "view",
      "type": "function"
    },
    {
      "inputs": [],
      "name": "getPlatformStats",
      "outputs": [
        {
          "internalType": "uint256",
          "name": "totalCompanies",
          "type": "uint256"
        },
        {
          "internalType": "uint256",
          "name": "totalBranches",
          "type": "uint256"
        },
        {
          "internalType": "uint256",
          "name": "totalCylinders",
          "type": "uint256"
        },
        {
          "internalType": "uint256",
          "name": "totalVouchers",
          "type": "uint256"
        },
        {
          "internalType": "uint256",
          "name": "completedSwaps",
          "type": "uint256"
        },
        {
          "internalType": "uint256",
          "name": "launchDate",
          "type": "uint256"
        }
      ],
      "stateMutability": "view",
      "type": "function"
    },
    {
      "inputs": [
        {
          "internalType": "bytes32",
          "name": "role",
          "type": "bytes32"
        }
      ],
      "name": "getRoleAdmin",
      "outputs": [
        {
          "internalType": "bytes32",
          "name": "",
          "type": "bytes32"
        }
      ],
      "stateMutability": "view",
      "type": "function"
    },
    {
      "inputs": [
        {
          "internalType": "address",
          "name": "staff",
          "type": "address"
        }
      ],
      "name": "getStaffBranch",
      "outputs": [
        {
          "internalType": "uint256",
          "name": "",
          "type": "uint256"
        }
      ],
      "stateMutability": "view",
      "type": "function"
    },
    {
      "inputs": [
        {
          "internalType": "address",
          "name": "staff",
          "type": "address"
        }
      ],
      "name": "getStaffCompany",
      "outputs": [
        {
          "internalType": "uint256",
          "name": "",
          "type": "uint256"
        }
      ],
      "stateMutability": "view",
      "type": "function"
    },
    {
      "inputs": [
        {
          "internalType": "bytes32",
          "name": "role",
          "type": "bytes32"
        },
        {
          "internalType": "address",
          "name": "account",
          "type": "address"
        }
      ],
      "name": "grantRole",
      "outputs": [],
      "stateMutability": "nonpayable",
      "type": "function"
    },
    {
      "inputs": [
        {
          "internalType": "bytes32",
          "name": "role",
          "type": "bytes32"
        },
        {
          "internalType": "address",
          "name": "account",
          "type": "address"
        }
      ],
      "name": "hasRole",
      "outputs": [
        {
          "internalType": "bool",
          "name": "",
          "type": "bool"
        }
      ],
      "stateMutability": "view",
      "type": "function"
    },
    {
      "inputs": [
        {
          "internalType": "address",
          "name": "customer",
          "type": "address"
        },
        {
          "internalType": "string",
          "name": "cylinderSerialNumber",
          "type": "string"
        },
        {
          "internalType": "uint256",
          "name": "branchId",
          "type": "uint256"
        },
        {
          "internalType": "string",
          "name": "customerName",
          "type": "string"
        },
        {
          "internalType": "string",
          "name": "customerEmail",
          "type": "string"
        },
        {
          "internalType": "string",
          "name": "customerPhone",
          "type": "string"
        }
      ],
      "name": "initiateSwap",
      "outputs": [
        {
          "internalType": "uint256",
          "name": "",
          "type": "uint256"
        }
      ],
      "stateMutability": "nonpayable",
      "type": "function"
    },
    {
      "inputs": [
        {
          "internalType": "address",
          "name": "staff",
          "type": "address"
        },
        {
          "internalType": "uint256",
          "name": "branchId",
          "type": "uint256"
        }
      ],
      "name": "isBranchStaff",
      "outputs": [
        {
          "internalType": "bool",
          "name": "",
          "type": "bool"
        }
      ],
      "stateMutability": "view",
      "type": "function"
    },
    {
      "inputs": [
        {
          "internalType": "address",
          "name": "staff",
          "type": "address"
        },
        {
          "internalType": "uint256",
          "name": "companyId",
          "type": "uint256"
        }
      ],
      "name": "isCompanyStaff",
      "outputs": [
        {
          "internalType": "bool",
          "name": "",
          "type": "bool"
        }
      ],
      "stateMutability": "view",
      "type": "function"
    },
    {
      "inputs": [],
      "name": "pause",
      "outputs": [],
      "stateMutability": "nonpayable",
      "type": "function"
    },
    {
      "inputs": [],
      "name": "paused",
      "outputs": [
        {
          "internalType": "bool",
          "name": "",
          "type": "bool"
        }
      ],
      "stateMutability": "view",
      "type": "function"
    },
    {
      "inputs": [],
      "name": "platformLaunchDate",
      "outputs": [
        {
          "internalType": "uint256",
          "name": "",
          "type": "uint256"
        }
      ],
      "stateMutability": "view",
      "type": "function"
    },
    {
      "inputs": [
        {
          "internalType": "address",
          "name": "staff",
          "type": "address"
        }
      ],
      "name": "removeStaff",
      "outputs": [],
      "stateMutability": "nonpayable",
      "type": "function"
    },
    {
      "inputs": [
        {
          "internalType": "bytes32",
          "name": "role",
          "type": "bytes32"
        },
        {
          "internalType": "address",
          "name": "callerConfirmation",
          "type": "address"
        }
      ],
      "name": "renounceRole",
      "outputs": [],
      "stateMutability": "nonpayable",
      "type": "function"
    },
    {
      "inputs": [
        {
          "internalType": "bytes32",
          "name": "role",
          "type": "bytes32"
        },
        {
          "internalType": "address",
          "name": "account",
          "type": "address"
        }
      ],
      "name": "revokeRole",
      "outputs": [],
      "stateMutability": "nonpayable",
      "type": "function"
    },
    {
      "inputs": [
        {
          "internalType": "address",
          "name": "",
          "type": "address"
        }
      ],
      "name": "staffBranch",
      "outputs": [
        {
          "internalType": "uint256",
          "name": "",
          "type": "uint256"
        }
      ],
      "stateMutability": "view",
      "type": "function"
    },
    {
      "inputs": [
        {
          "internalType": "address",
          "name": "",
          "type": "address"
        }
      ],
      "name": "staffCompany",
      "outputs": [
        {
          "internalType": "uint256",
          "name": "",
          "type": "uint256"
        }
      ],
      "stateMutability": "view",
      "type": "function"
    },
    {
      "inputs": [
        {
          "internalType": "bytes4",
          "name": "interfaceId",
          "type": "bytes4"
        }
      ],
      "name": "supportsInterface",
      "outputs": [
        {
          "internalType": "bool",
          "name": "",
          "type": "bool"
        }
      ],
      "stateMutability": "view",
      "type": "function"
    },
    {
      "inputs": [],
      "name": "totalSwapsCompleted",
      "outputs": [
        {
          "internalType": "uint256",
          "name": "",
          "type": "uint256"
        }
      ],
      "stateMutability": "view",
      "type": "function"
    },
    {
      "inputs": [],
      "name": "unpause",
      "outputs": [],
      "stateMutability": "nonpayable",
      "type": "function"
    },
    {
      "inputs": [
        {
          "internalType": "address",
          "name": "_companyManager",
          "type": "address"
        },
        {
          "internalType": "address",
          "name": "_cylinderRegistry",
          "type": "address"
        },
        {
          "internalType": "address",
          "name": "_voucherManager",
          "type": "address"
        }
      ],
      "name": "updateContracts",
      "outputs": [],
      "stateMutability": "nonpayable",
      "type": "function"
    },
    {
      "inputs": [
        {
          "internalType": "uint256",
          "name": "voucherId",
          "type": "uint256"
        }
      ],
      "name": "verifyVoucher",
      "outputs": [
        {
          "internalType": "bool",
          "name": "isValid",
          "type": "bool"
        },
        {
          "internalType": "uint256",
          "name": "companyId",
          "type": "uint256"
        },
        {
          "internalType": "uint256",
          "name": "cylinderTypeId",
          "type": "uint256"
        },
        {
          "internalType": "uint256",
          "name": "daysRemaining",
          "type": "uint256"
        },
        {
          "internalType": "string",
          "name": "status",
          "type": "string"
        }
      ],
      "stateMutability": "view",
      "type": "function"
    },
    {
      "inputs": [],
      "name": "voucherManager",
      "outputs": [
        {
          "internalType": "contract VoucherManager",
          "name": "",
          "type": "address"
        }
      ],
      "stateMutability": "view",
      "type": "function"
    }
  ],
  "bytecode": "0x60806040523480156200001157600080fd5b5060405162003060380380620030608339810160408190526200003491620002d3565b6200004160003362000207565b506200006e7f5246556c0ab216b5b325ad7c539bfbd1a07c768773cdf810fecd3c3375c274073362000207565b506001600160a01b038316620000cb5760405162461bcd60e51b815260206004820152601660248201527f496e76616c696420436f6d70616e794d616e616765720000000000000000000060448201526064015b60405180910390fd5b6001600160a01b038216620001235760405162461bcd60e51b815260206004820152601860248201527f496e76616c69642043796c696e646572526567697374727900000000000000006044820152606401620000c2565b6001600160a01b0381166200017b5760405162461bcd60e51b815260206004820152601660248201527f496e76616c696420566f75636865724d616e61676572000000000000000000006044820152606401620000c2565b600480546001600160a01b038581166001600160a01b031992831681179093556005805486831690841681179091556006805492861692909316821790925542600855604080519384526020840192909252908201527ffe9aca103505d1039b1f1bb1a4a987d7376e65413d7faec2f4a07d1c2faf77dc9060600160405180910390a15050506200031d565b6000828152602081815260408083206001600160a01b038516845290915281205460ff16620002ac576000838152602081815260408083206001600160a01b03861684529091529020805460ff19166001179055620002633390565b6001600160a01b0316826001600160a01b0316847f2f8788117e7eff1d82e926ec794901d17c78024a50270940304540a733656f0d60405160405180910390a4506001620002b0565b5060005b92915050565b80516001600160a01b0381168114620002ce57600080fd5b919050565b600080600060608486031215620002e957600080fd5b620002f484620002b6565b92506200030460208501620002b6565b91506200031460408501620002b6565b90509250925092565b612d33806200032d6000396000f3fe608060405234801561001057600080fd5b50600436106102115760003560e01c80636de482c811610125578063c96ea900116100ad578063d547741f1161007c578063d547741f146104f2578063db6f3c0f14610505578063def10b5314610518578063fa1493c71461052b578063fa2674741461053e57600080fd5b8063c96ea90014610496578063ca19e412146104ab578063cc4320b4146104d6578063cd82e7d3146104e957600080fd5b80639eda108e116100f45780639eda108e1461042a578063a217fddf14610453578063a871c83d1461045b578063ab445c491461046e578063c4522c921461048357600080fd5b80636de482c8146103d65780637d5ed69d146103e95780638456cb591461040f57806391d148541461041757600080fd5b80633f4ba83a116101a85780635c975abb116101775780635c975abb1461037d578063608a9b481461038857806366e2b2811461039b578063685d34ff146103ae5780636dca4d44146103c357600080fd5b80633f4ba83a1461032857806349aeeadf1461033057806356bd928a146103545780635bcc0d021461035d57600080fd5b8063248a9ca3116101e4578063248a9ca3146102bd5780632a324818146102e05780632f2ff15d1461030057806336568abe1461031557600080fd5b806301ffc9a714610216578063136d88831461023e57806317be7091146102735780631b28362a14610294575b600080fd5b61022961022436600461219c565b61055e565b60405190151581526020015b60405180910390f35b610246610595565b604080519687526020870195909552938501929092526060840152608083015260a082015260c001610235565b61028661028136600461233e565b610787565b604051908152602001610235565b6102866102a2366004612403565b6001600160a01b031660009081526003602052604090205490565b6102866102cb366004612420565b60009081526020819052604090206001015490565b6102866102ee366004612403565b60026020526000908152604090205481565b61031361030e366004612439565b610ba4565b005b610313610323366004612439565b610bcf565b610313610c07565b61034361033e366004612420565b610c2a565b6040516102359594939291906124b9565b61028660085481565b61037061036b366004612403565b610e99565b60405161023591906124f1565b60015460ff16610229565b610229610396366004612535565b61111b565b6103136103a9366004612561565b61117a565b610286600080516020612cde83398151915281565b6103136103d1366004612596565b611359565b6102866103e43660046125e1565b61144c565b6103fc6103f7366004612420565b6114c3565b6040516102359796959493929190612603565b610313611664565b610229610425366004612439565b611684565b610286610438366004612403565b6001600160a01b031660009081526002602052604090205490565b610286600081565b610313610469366004612535565b6116ad565b610286600080516020612c9e83398151915281565b610313610491366004612403565b6117b6565b610286600080516020612cbe83398151915281565b6006546104be906001600160a01b031681565b6040516001600160a01b039091168152602001610235565b6004546104be906001600160a01b031681565b61028660075481565b610313610500366004612439565b6118ef565b610313610513366004612653565b611914565b610229610526366004612535565b611f48565b6005546104be906001600160a01b031681565b61028661054c366004612403565b60036020526000908152604090205481565b60006001600160e01b03198216637965db0b60e01b148061058f57506301ffc9a760e01b6001600160e01b03198316145b92915050565b600080600080600080600460009054906101000a90046001600160a01b03166001600160a01b0316638e75dd476040518163ffffffff1660e01b8152600401602060405180830381865afa1580156105f1573d6000803e3d6000fd5b505050506040513d601f19601f8201168201806040525081019061061591906126a2565b60048054604080516320c98d2560e11b815290516001600160a01b03909216926341931a4a9282820192602092908290030181865afa15801561065c573d6000803e3d6000fd5b505050506040513d601f19601f8201168201806040525081019061068091906126a2565b600560009054906101000a90046001600160a01b03166001600160a01b0316635e56ee846040518163ffffffff1660e01b8152600401602060405180830381865afa1580156106d3573d6000803e3d6000fd5b505050506040513d601f19601f820116820180604052508101906106f791906126a2565b600660009054906101000a90046001600160a01b03166001600160a01b031663e3856b006040518163ffffffff1660e01b8152600401602060405180830381865afa15801561074a573d6000803e3d6000fd5b505050506040513d601f19601f8201168201806040525081019061076e91906126a2565b600754600854949b939a50919850965094509092509050565b6000600080516020612c9e8339815191526107a181611f82565b6107a9611f8c565b600554604051630b2e04e160e11b815260009182916001600160a01b039091169063165c09c2906107de908c906004016126bb565b600060405180830381865afa1580156107fb573d6000803e3d6000fd5b505050506040513d6000823e601f3d908101601f19168201604052610823919081019061272a565b915091506000821161087c5760405162461bcd60e51b815260206004820152601760248201527f43796c696e646572206e6f74207265676973746572656400000000000000000060448201526064015b60405180910390fd5b600481608001516004811115610894576108946127f0565b036108d75760405162461bcd60e51b815260206004820152601360248201527210de5b1a5b99195c881a5cc81c995d1a5c9959606a1b6044820152606401610873565b6004805460405163248dec9f60e21b81529182018a90526001600160a01b031690639237b27c90602401602060405180830381865afa15801561091e573d6000803e3d6000fd5b505050506040513d601f19601f820116820180604052508101906109429190612816565b61097f5760405162461bcd60e51b815260206004820152600e60248201526d092dcecc2d8d2c840c4e4c2dcc6d60931b6044820152606401610873565b6004805460405163493d08db60e11b81529182018a90526000916001600160a01b039091169063927a11b690602401600060405180830381865afa1580156109cb573d6000803e3d6000fd5b505050506040513d6000823e601f3d908101601f191682016040526109f39190810190612831565b8251602082015191925014610a3d5760405162461bcd60e51b815260206004820152601060248201526f086dedae0c2dcf240dad2e6dac2e8c6d60831b6044820152606401610873565b600554604051630f52095160e41b81526001600160a01b039091169063f520951090610a729086906002908e90600401612917565b600060405180830381600087803b158015610a8c57600080fd5b505af1158015610aa0573d6000803e3d6000fd5b505050506000600660009054906101000a90046001600160a01b03166001600160a01b0316637a7dbf858d856000015186602001518e898f8f8f6040518963ffffffff1660e01b8152600401610afd98979695949392919061294d565b6020604051808303816000875af1158015610b1c573d6000803e3d6000fd5b505050506040513d601f19601f82011682018060405250810190610b4091906126a2565b8351602080860151604080519384529183015281018c90529091506001600160a01b038d169082907fbf55ffda6f9820b47274bce10646491abfc57a92970f92734512c3aae79b25989060600160405180910390a39b9a5050505050505050505050565b600082815260208190526040902060010154610bbf81611f82565b610bc98383611fb2565b50505050565b6001600160a01b0381163314610bf85760405163334bd91960e11b815260040160405180910390fd5b610c028282612044565b505050565b600080516020612cde833981519152610c1f81611f82565b610c276120af565b50565b600654604051633100773d60e11b8152600481018390526000918291829182916060916001600160a01b031690636200ee7a90602401602060405180830381865afa158015610c7d573d6000803e3d6000fd5b505050506040513d601f19601f82011682018060405250810190610ca19190612816565b9450600086118015610d295750600660009054906101000a90046001600160a01b03166001600160a01b031663e3856b006040518163ffffffff1660e01b8152600401602060405180830381865afa158015610d01573d6000803e3d6000fd5b505050506040513d601f19601f82011682018060405250810190610d2591906126a2565b8611155b15610e905760065460405163019f45fb60e31b8152600481018890526000916001600160a01b031690630cfa2fd8906024016101a060405180830381865afa158015610d79573d6000803e3d6000fd5b505050506040513d601f19601f82011682018060405250810190610d9d91906129d8565b6040818101516060830151600654925163384d7b1360e21b8152600481018c905291985096509192506001600160a01b03169063e135ec4c90602401602060405180830381865afa158015610df6573d6000803e3d6000fd5b505050506040513d601f19601f82011682018060405250810190610e1a91906126a2565b6006546040516303c9f26f60e31b8152600481018a90529194506001600160a01b031690631e4f937890602401600060405180830381865afa158015610e64573d6000803e3d6000fd5b505050506040513d6000823e601f3d908101601f19168201604052610e8c9190810190612a90565b9150505b91939590929450565b600654604051632f4733eb60e21b81526001600160a01b03838116600483015260609260009291169063bd1ccfac90602401600060405180830381865afa158015610ee8573d6000803e3d6000fd5b505050506040513d6000823e601f3d908101601f19168201604052610f109190810190612ac4565b90506000805b8251811015610fd45760065483516001600160a01b0390911690636200ee7a90859084908110610f4857610f48612b69565b60200260200101516040518263ffffffff1660e01b8152600401610f6e91815260200190565b602060405180830381865afa158015610f8b573d6000803e3d6000fd5b505050506040513d601f19601f82011682018060405250810190610faf9190612816565b15610fc25781610fbe81612b7f565b9250505b80610fcc81612b7f565b915050610f16565b50806001600160401b03811115610fed57610fed6121eb565b604051908082528060200260200182016040528015611016578160200160208202803683370190505b5092506000805b83518110156111125760065484516001600160a01b0390911690636200ee7a9086908490811061104f5761104f612b69565b60200260200101516040518263ffffffff1660e01b815260040161107591815260200190565b602060405180830381865afa158015611092573d6000803e3d6000fd5b505050506040513d601f19601f820116820180604052508101906110b69190612816565b15611100578381815181106110cd576110cd612b69565b60200260200101518583815181106110e7576110e7612b69565b6020908102919091010152816110fc81612b7f565b9250505b8061110a81612b7f565b91505061101d565b50505050919050565b6001600160a01b038216600090815260026020526040812054821480156111735750611155600080516020612c9e83398151915284611684565b806111735750611173600080516020612cbe83398151915284611684565b9392505050565b6001600160a01b0383166111c25760405162461bcd60e51b815260206004820152600f60248201526e496e76616c6964206164647265737360881b6044820152606401610873565b600082116112075760405162461bcd60e51b8152602060048201526012602482015271125b9d985b1a590818dbdb5c185b9e48125160721b6044820152606401610873565b6000811161124b5760405162461bcd60e51b8152602060048201526011602482015270125b9d985b1a5908189c985b98da081251607a1b6044820152606401610873565b611263600080516020612cde83398151915233611684565b8061129b5750611281600080516020612cbe83398151915233611684565b801561129b57503360009081526002602052604090205482145b6112e75760405162461bcd60e51b815260206004820152601e60248201527f4e6f7420617574686f72697a656420746f2061737369676e20737461666600006044820152606401610873565b6112ff600080516020612c9e83398151915284611fb2565b506001600160a01b03831660008181526002602090815260408083208690556003909152808220849055518392859290917f90d48eec78a21ecf21a2bc62a8b3a3803f0c40cc6b662df5e7506989fe4af86f9190a4505050565b600080516020612cde83398151915261137181611f82565b6001600160a01b0384161561139c57600480546001600160a01b0319166001600160a01b0386161790555b6001600160a01b038316156113c757600580546001600160a01b0319166001600160a01b0385161790555b6001600160a01b038216156113f257600680546001600160a01b0319166001600160a01b0384161790555b600454600554600654604080516001600160a01b039485168152928416602084015292168183015290517ffe9aca103505d1039b1f1bb1a4a987d7376e65413d7faec2f4a07d1c2faf77dc9181900360600190a150505050565b60048054604051630868712560e01b8152918201849052602482018390526000916001600160a01b0390911690630868712590604401602060405180830381865afa15801561149f573d6000803e3d6000fd5b505050506040513d601f19601f8201168201806040525081019061117391906126a2565b600480546040516357d1391760e01b81529182018390526060918291600091829182918291829182916001600160a01b0316906357d1391790602401600060405180830381865afa15801561151c573d6000803e3d6000fd5b505050506040513d6000823e601f3d908101601f191682016040526115449190810190612ba6565b60048054604051632a4d1e1360e01b81529182018c90529192506000916001600160a01b031690632a4d1e1390602401600060405180830381865afa158015611591573d6000803e3d6000fd5b505050506040513d6000823e601f3d908101601f191682016040526115b99190810190612ac4565b600654604051637dc7982560e11b8152600481018d9052919250600091829182916001600160a01b039091169063fb8f304a90602401606060405180830381865afa15801561160c573d6000803e3d6000fd5b505050506040513d601f19601f820116820180604052508101906116309190612c6f565b602088015160408901516060909901519751909f50979d50959b509599509750939550919350505050919395979092949650565b600080516020612cde83398151915261167c81611f82565b610c27612101565b6000918252602082815260408084206001600160a01b0393909316845291905290205460ff1690565b600080516020612cde8339815191526116c581611f82565b6001600160a01b03831661170d5760405162461bcd60e51b815260206004820152600f60248201526e496e76616c6964206164647265737360881b6044820152606401610873565b600082116117525760405162461bcd60e51b8152602060048201526012602482015271125b9d985b1a590818dbdb5c185b9e48125160721b6044820152606401610873565b61176a600080516020612cbe83398151915284611fb2565b506001600160a01b03831660008181526002602052604080822085905551909184917f90d48eec78a21ecf21a2bc62a8b3a3803f0c40cc6b662df5e7506989fe4af86f908490a4505050565b6001600160a01b0381166000908152600260205260409020546117e7600080516020612cde83398151915233611684565b8061181f5750611805600080516020612cbe83398151915233611684565b801561181f57503360009081526002602052604090205481145b61186b5760405162461bcd60e51b815260206004820152601e60248201527f4e6f7420617574686f72697a656420746f2072656d6f766520737461666600006044820152606401610873565b611883600080516020612c9e83398151915283612044565b5061189c600080516020612cbe83398151915283612044565b506001600160a01b03821660008181526002602090815260408083208390556003909152808220829055517fbe0c9c04c8b745ee47e5f1102a51b7adffc957970fe9242ff6c0793adc748b1e9190a25050565b60008281526020819052604090206001015461190a81611f82565b610bc98383612044565b600080516020612c9e83398151915261192c81611f82565b611934611f8c565b600654604051633100773d60e11b8152600481018690526001600160a01b0390911690636200ee7a90602401602060405180830381865afa15801561197d573d6000803e3d6000fd5b505050506040513d601f19601f820116820180604052508101906119a19190612816565b6119ed5760405162461bcd60e51b815260206004820152601a60248201527f496e76616c6964206f72206578706972656420766f75636865720000000000006044820152606401610873565b60065460405163019f45fb60e31b8152600481018690526000916001600160a01b031690630cfa2fd8906024016101a060405180830381865afa158015611a38573d6000803e3d6000fd5b505050506040513d601f19601f82011682018060405250810190611a5c91906129d8565b6004805460405163248dec9f60e21b81529293506001600160a01b031691639237b27c91611a909187910190815260200190565b602060405180830381865afa158015611aad573d6000803e3d6000fd5b505050506040513d601f19601f82011682018060405250810190611ad19190612816565b611b0e5760405162461bcd60e51b815260206004820152600e60248201526d092dcecc2d8d2c840c4e4c2dcc6d60931b6044820152606401610873565b6004805460405163493d08db60e11b81529182018590526000916001600160a01b039091169063927a11b690602401600060405180830381865afa158015611b5a573d6000803e3d6000fd5b505050506040513d6000823e601f3d908101601f19168201604052611b829190810190612831565b90508160400151816020015114611bdb5760405162461bcd60e51b815260206004820152601b60248201527f4d7573742072656465656d2061742073616d6520636f6d70616e7900000000006044820152606401610873565b600554604051630b2e04e160e11b815260009182916001600160a01b039091169063165c09c290611c10908a906004016126bb565b600060405180830381865afa158015611c2d573d6000803e3d6000fd5b505050506040513d6000823e601f3d908101601f19168201604052611c55919081019061272a565b9150915060008211611ca95760405162461bcd60e51b815260206004820152601b60248201527f4e65772063796c696e646572206e6f74207265676973746572656400000000006044820152606401610873565b60055460405163342d6fe760e11b815260048101849052602481018890526001600160a01b039091169063685adfce90604401602060405180830381865afa158015611cf9573d6000803e3d6000fd5b505050506040513d601f19601f82011682018060405250810190611d1d9190612816565b611d695760405162461bcd60e51b815260206004820152601b60248201527f43796c696e646572206e6f742061742074686973206272616e636800000000006044820152606401610873565b6040840151815114611db05760405162461bcd60e51b815260206004820152601060248201526f086dedae0c2dcf240dad2e6dac2e8c6d60831b6044820152606401610873565b8360600151816020015114611e005760405162461bcd60e51b8152602060048201526016602482015275086f2d8d2dcc8cae440e8f2e0ca40dad2e6dac2e8c6d60531b6044820152606401610873565b600554604051630f52095160e41b81526001600160a01b039091169063f520951090611e359085906002908b90600401612917565b600060405180830381600087803b158015611e4f57600080fd5b505af1158015611e63573d6000803e3d6000fd5b505060065460405163aac835f360e01b8152600481018c9052602481018a9052604481018690526001600160a01b03909116925063aac835f39150606401600060405180830381600087803b158015611ebb57600080fd5b505af1158015611ecf573d6000803e3d6000fd5b505060078054925090506000611ee483612b7f565b91905055508360a001516001600160a01b0316887fc1dcfb71244416c0fd0257c48433c636e1b1dd7332b289701b65dae237177b06866080015189604051611f36929190918252602082015260400190565b60405180910390a35050505050505050565b6001600160a01b038216600090815260036020526040812054821480156111735750611173600080516020612c9e83398151915284611684565b610c27813361213c565b60015460ff1615611fb05760405163d93c066560e01b815260040160405180910390fd5b565b6000611fbe8383611684565b61203c576000838152602081815260408083206001600160a01b03861684529091529020805460ff19166001179055611ff43390565b6001600160a01b0316826001600160a01b0316847f2f8788117e7eff1d82e926ec794901d17c78024a50270940304540a733656f0d60405160405180910390a450600161058f565b50600061058f565b60006120508383611684565b1561203c576000838152602081815260408083206001600160a01b0386168085529252808320805460ff1916905551339286917ff6391f5c32d9c69d2a47ea670b442974b53935d1edc7fd64eb21e047a839171b9190a450600161058f565b6120b7612179565b6001805460ff191690557f5db9ee0a495bf2e6ff9c91a7834c1ba4fdd244a5e8aa4e537bd38aeae4b073aa335b6040516001600160a01b03909116815260200160405180910390a1565b612109611f8c565b6001805460ff1916811790557f62e78cea01bee320cd4e420270b5ea74000d11b0c9f74754ebdbfc544b05a258336120e4565b6121468282611684565b6121755760405163e2517d3f60e01b81526001600160a01b038216600482015260248101839052604401610873565b5050565b60015460ff16611fb057604051638dfc202b60e01b815260040160405180910390fd5b6000602082840312156121ae57600080fd5b81356001600160e01b03198116811461117357600080fd5b6001600160a01b0381168114610c2757600080fd5b80356121e6816121c6565b919050565b634e487b7160e01b600052604160045260246000fd5b60405161010081016001600160401b0381118282101715612224576122246121eb565b60405290565b60405160e081016001600160401b0381118282101715612224576122246121eb565b6040516101a081016001600160401b0381118282101715612224576122246121eb565b60405160c081016001600160401b0381118282101715612224576122246121eb565b604051601f8201601f191681016001600160401b03811182821017156122b9576122b96121eb565b604052919050565b60006001600160401b038211156122da576122da6121eb565b50601f01601f191660200190565b600082601f8301126122f957600080fd5b813561230c612307826122c1565b612291565b81815284602083860101111561232157600080fd5b816020850160208301376000918101602001919091529392505050565b60008060008060008060c0878903121561235757600080fd5b612360876121db565b955060208701356001600160401b038082111561237c57600080fd5b6123888a838b016122e8565b96506040890135955060608901359150808211156123a557600080fd5b6123b18a838b016122e8565b945060808901359150808211156123c757600080fd5b6123d38a838b016122e8565b935060a08901359150808211156123e957600080fd5b506123f689828a016122e8565b9150509295509295509295565b60006020828403121561241557600080fd5b8135611173816121c6565b60006020828403121561243257600080fd5b5035919050565b6000806040838503121561244c57600080fd5b82359150602083013561245e816121c6565b809150509250929050565b60005b8381101561248457818101518382015260200161246c565b50506000910152565b600081518084526124a5816020860160208601612469565b601f01601f19169290920160200192915050565b851515815284602082015283604082015282606082015260a0608082015260006124e660a083018461248d565b979650505050505050565b6020808252825182820181905260009190848201906040850190845b818110156125295783518352928401929184019160010161250d565b50909695505050505050565b6000806040838503121561254857600080fd5b8235612553816121c6565b946020939093013593505050565b60008060006060848603121561257657600080fd5b8335612581816121c6565b95602085013595506040909401359392505050565b6000806000606084860312156125ab57600080fd5b83356125b6816121c6565b925060208401356125c6816121c6565b915060408401356125d6816121c6565b809150509250925092565b600080604083850312156125f457600080fd5b50508035926020909101359150565b60e08152600061261660e083018a61248d565b8281036020840152612628818a61248d565b971515604084015250506060810194909452608084019290925260a083015260c09091015292915050565b60008060006060848603121561266857600080fd5b8335925060208401356001600160401b0381111561268557600080fd5b612691868287016122e8565b925050604084013590509250925092565b6000602082840312156126b457600080fd5b5051919050565b602081526000611173602083018461248d565b600082601f8301126126df57600080fd5b81516126ed612307826122c1565b81815284602083860101111561270257600080fd5b612713826020830160208701612469565b949350505050565b8051600581106121e657600080fd5b6000806040838503121561273d57600080fd5b8251915060208301516001600160401b038082111561275b57600080fd5b90840190610100828703121561277057600080fd5b612778612201565b825181526020830151602082015260408301518281111561279857600080fd5b6127a4888286016126ce565b604083015250606083015160608201526127c06080840161271b565b608082015260a083015160a082015260c083015160c082015260e083015160e08201528093505050509250929050565b634e487b7160e01b600052602160045260246000fd5b805180151581146121e657600080fd5b60006020828403121561282857600080fd5b61117382612806565b60006020828403121561284357600080fd5b81516001600160401b038082111561285a57600080fd5b9083019060e0828603121561286e57600080fd5b61287661222a565b825181526020830151602082015260408301518281111561289657600080fd5b6128a2878286016126ce565b6040830152506060830151828111156128ba57600080fd5b6128c6878286016126ce565b6060830152506080830151828111156128de57600080fd5b6128ea878286016126ce565b6080830152506128fc60a08401612806565b60a082015260c083015160c082015280935050505092915050565b838152606081016005841061293c57634e487b7160e01b600052602160045260246000fd5b602082019390935260400152919050565b600061010060018060a01b038b1683528960208401528860408401528760608401528660808401528060a08401526129878184018761248d565b905082810360c084015261299b818661248d565b905082810360e08401526129af818561248d565b9b9a5050505050505050505050565b80516121e6816121c6565b8051600481106121e657600080fd5b60006101a082840312156129eb57600080fd5b6129f361224c565b8251815260208301516020820152604083015160408201526060830151606082015260808301516080820152612a2b60a084016129be565b60a082015260c083015160c082015260e083015160e0820152610100612a528185016129c9565b90820152610120838101519082015261014080840151908201526101608084015190820152610180612a858185016129be565b908201529392505050565b600060208284031215612aa257600080fd5b81516001600160401b03811115612ab857600080fd5b612713848285016126ce565b60006020808385031215612ad757600080fd5b82516001600160401b0380821115612aee57600080fd5b818501915085601f830112612b0257600080fd5b815181811115612b1457612b146121eb565b8060051b9150612b25848301612291565b8181529183018401918481019088841115612b3f57600080fd5b938501935b83851015612b5d57845182529385019390850190612b44565b98975050505050505050565b634e487b7160e01b600052603260045260246000fd5b600060018201612b9f57634e487b7160e01b600052601160045260246000fd5b5060010190565b600060208284031215612bb857600080fd5b81516001600160401b0380821115612bcf57600080fd5b9083019060c08286031215612be357600080fd5b612beb61226f565b82518152602083015182811115612c0157600080fd5b612c0d878286016126ce565b602083015250604083015182811115612c2557600080fd5b612c31878286016126ce565b604083015250612c4360608401612806565b6060820152612c54608084016129be565b608082015260a083015160a082015280935050505092915050565b600080600060608486031215612c8457600080fd5b835192506020840151915060408401519050925092509256fe45f38dbdf8e6d346f59dbe508e964d6aad44a9632bbdf1d41126e061be7824284c5ca41c2cc71805cf781b20e21f68a1c1f7d2f44a1193a84519d6dcf00861165246556c0ab216b5b325ad7c539bfbd1a07c768773cdf810fecd3c3375c27407a264697066735822122075743dedcbba07d57845737becaa6d0e440127761872745a482103c4be2b9fb764736f6c63430008140033",
  "linkReferences": {},
  "deployedLinkReferences": {}
}